{
  "contractName": "JNFTMarket",
  "abi": [
    {
      "inputs": [],
      "stateMutability": "nonpayable",
      "type": "constructor"
    },
    {
      "anonymous": false,
      "inputs": [
        {
          "indexed": false,
          "internalType": "uint256",
          "name": "itemId",
          "type": "uint256"
        },
        {
          "indexed": false,
          "internalType": "uint256",
          "name": "tokenId",
          "type": "uint256"
        },
        {
          "indexed": false,
          "internalType": "uint256",
          "name": "price",
          "type": "uint256"
        },
        {
          "indexed": false,
          "internalType": "address",
          "name": "nftContract",
          "type": "address"
        },
        {
          "indexed": false,
          "internalType": "address",
          "name": "seller",
          "type": "address"
        },
        {
          "indexed": false,
          "internalType": "address",
          "name": "owner",
          "type": "address"
        }
      ],
      "name": "MarketItemCreated",
      "type": "event"
    },
    {
      "anonymous": false,
      "inputs": [
        {
          "indexed": true,
          "internalType": "address",
          "name": "previousOwner",
          "type": "address"
        },
        {
          "indexed": true,
          "internalType": "address",
          "name": "newOwner",
          "type": "address"
        }
      ],
      "name": "OwnershipTransferred",
      "type": "event"
    },
    {
      "inputs": [],
      "name": "owner",
      "outputs": [
        {
          "internalType": "address",
          "name": "",
          "type": "address"
        }
      ],
      "stateMutability": "view",
      "type": "function",
      "constant": true
    },
    {
      "inputs": [],
      "name": "renounceOwnership",
      "outputs": [],
      "stateMutability": "nonpayable",
      "type": "function"
    },
    {
      "inputs": [
        {
          "internalType": "address",
          "name": "newOwner",
          "type": "address"
        }
      ],
      "name": "transferOwnership",
      "outputs": [],
      "stateMutability": "nonpayable",
      "type": "function"
    },
    {
      "inputs": [
        {
          "internalType": "uint256",
          "name": "_listingPrice",
          "type": "uint256"
        }
      ],
      "name": "setListingPrice",
      "outputs": [],
      "stateMutability": "nonpayable",
      "type": "function"
    },
    {
      "inputs": [
        {
          "internalType": "uint256",
          "name": "_amount",
          "type": "uint256"
        }
      ],
      "name": "withdraw",
      "outputs": [],
      "stateMutability": "nonpayable",
      "type": "function"
    },
    {
      "inputs": [
        {
          "internalType": "address",
          "name": "_nftContract",
          "type": "address"
        },
        {
          "internalType": "uint256",
          "name": "_tokenId",
          "type": "uint256"
        },
        {
          "internalType": "uint256",
          "name": "_price",
          "type": "uint256"
        }
      ],
      "name": "createMarketItem",
      "outputs": [],
      "stateMutability": "payable",
      "type": "function",
      "payable": true
    },
    {
      "inputs": [
        {
          "internalType": "uint256",
          "name": "_itemId",
          "type": "uint256"
        }
      ],
      "name": "cancelMarketCreated",
      "outputs": [],
      "stateMutability": "nonpayable",
      "type": "function"
    },
    {
      "inputs": [
        {
          "internalType": "uint256",
          "name": "_itemId",
          "type": "uint256"
        }
      ],
      "name": "createMarketSale",
      "outputs": [],
      "stateMutability": "payable",
      "type": "function",
      "payable": true
    },
    {
      "inputs": [],
      "name": "fetchUnsoldMarketItems",
      "outputs": [
        {
          "components": [
            {
              "internalType": "uint256",
              "name": "itemId",
              "type": "uint256"
            },
            {
              "internalType": "uint256",
              "name": "tokenId",
              "type": "uint256"
            },
            {
              "internalType": "uint256",
              "name": "price",
              "type": "uint256"
            },
            {
              "internalType": "address",
              "name": "nftContract",
              "type": "address"
            },
            {
              "internalType": "address",
              "name": "seller",
              "type": "address"
            },
            {
              "internalType": "address",
              "name": "owner",
              "type": "address"
            }
          ],
          "internalType": "struct JNFTMarket.MarketItem[]",
          "name": "",
          "type": "tuple[]"
        }
      ],
      "stateMutability": "view",
      "type": "function",
      "constant": true
    }
  ],
  "bytecode": "0x608060405266038d7ea4c6800060035534801561001b57600080fd5b5061003861002d61003d60201b60201c565b61004560201b60201c565b610109565b600033905090565b60008060009054906101000a900473ffffffffffffffffffffffffffffffffffffffff169050816000806101000a81548173ffffffffffffffffffffffffffffffffffffffff021916908373ffffffffffffffffffffffffffffffffffffffff1602179055508173ffffffffffffffffffffffffffffffffffffffff168173ffffffffffffffffffffffffffffffffffffffff167f8be0079c531659141344cd1fd0a4f28419497f9722a3daafe3b4186f6b6457e060405160405180910390a35050565b6116b3806101186000396000f3fe6080604052600436106100865760003560e01c80637628ff55116100595780637628ff55146101105780637c726b691461013b5780638da5cb5b14610164578063be9af5361461018f578063f2fde38b146101ab57610086565b806315310a2a1461008b5780632e1a7d4d146100b457806358eb2df5146100dd578063715018a6146100f9575b600080fd5b34801561009757600080fd5b506100b260048036038101906100ad9190611172565b6101d4565b005b3480156100c057600080fd5b506100db60048036038101906100d69190611172565b610394565b005b6100f760048036038101906100f2919061111f565b610467565b005b34801561010557600080fd5b5061010e610802565b005b34801561011c57600080fd5b5061012561088a565b6040516101329190611364565b60405180910390f35b34801561014757600080fd5b50610162600480360381019061015d9190611172565b610afd565b005b34801561017057600080fd5b50610179610b83565b6040516101869190611312565b60405180910390f35b6101a960048036038101906101a49190611172565b610bac565b005b3480156101b757600080fd5b506101d260048036038101906101cd91906110c5565b610e4a565b005b6000600560008381526020019081526020016000209050600073ffffffffffffffffffffffffffffffffffffffff168160050160009054906101000a900473ffffffffffffffffffffffffffffffffffffffff1673ffffffffffffffffffffffffffffffffffffffff161461024857600080fd5b8060040160009054906101000a900473ffffffffffffffffffffffffffffffffffffffff1673ffffffffffffffffffffffffffffffffffffffff163373ffffffffffffffffffffffffffffffffffffffff16146102a457600080fd5b6000600460008360030160009054906101000a900473ffffffffffffffffffffffffffffffffffffffff1673ffffffffffffffffffffffffffffffffffffffff1673ffffffffffffffffffffffffffffffffffffffff16815260200190815260200160002060008360010154815260200190815260200160002060006101000a81548160ff021916908315150217905550338160050160006101000a81548173ffffffffffffffffffffffffffffffffffffffff021916908373ffffffffffffffffffffffffffffffffffffffff1602179055506002600081548092919061038b906114fc565b91905055505050565b61039c610f42565b73ffffffffffffffffffffffffffffffffffffffff166103ba610b83565b73ffffffffffffffffffffffffffffffffffffffff1614610410576040517f08c379a0000000000000000000000000000000000000000000000000000000008152600401610407906113a6565b60405180910390fd5b600061041a610b83565b90508073ffffffffffffffffffffffffffffffffffffffff166108fc839081150290604051600060405180830381858888f19350505050158015610462573d6000803e3d6000fd5b505050565b600354341461047557600080fd5b600460008473ffffffffffffffffffffffffffffffffffffffff1673ffffffffffffffffffffffffffffffffffffffff168152602001908152602001600020600083815260200190815260200160002060009054906101000a900460ff16156104dd57600080fd5b600081116104ea57600080fd5b60008373ffffffffffffffffffffffffffffffffffffffff16636352211e846040518263ffffffff1660e01b815260040161052591906113c6565b60206040518083038186803b15801561053d57600080fd5b505afa158015610551573d6000803e3d6000fd5b505050506040513d601f19601f8201168201806040525081019061057591906110f2565b90503373ffffffffffffffffffffffffffffffffffffffff168173ffffffffffffffffffffffffffffffffffffffff16146105af57600080fd5b6001600460008673ffffffffffffffffffffffffffffffffffffffff1673ffffffffffffffffffffffffffffffffffffffff168152602001908152602001600020600085815260200190815260200160002060006101000a81548160ff0219169083151502179055506040518060c0016040528060015481526020018481526020018381526020018573ffffffffffffffffffffffffffffffffffffffff1681526020013373ffffffffffffffffffffffffffffffffffffffff168152602001600073ffffffffffffffffffffffffffffffffffffffff1681525060056000600154815260200190815260200160002060008201518160000155602082015181600101556040820151816002015560608201518160030160006101000a81548173ffffffffffffffffffffffffffffffffffffffff021916908373ffffffffffffffffffffffffffffffffffffffff16021790555060808201518160040160006101000a81548173ffffffffffffffffffffffffffffffffffffffff021916908373ffffffffffffffffffffffffffffffffffffffff16021790555060a08201518160050160006101000a81548173ffffffffffffffffffffffffffffffffffffffff021916908373ffffffffffffffffffffffffffffffffffffffff160217905550905050600160008154809291906107a8906114fc565b91905055507f9647d2e9a23c1809a0461ae22d7688427bce1e7e0b92d0cb92b0e7f4dd72dd9c600180546107dc919061148c565b8484873360006040516107f4969594939291906113e1565b60405180910390a150505050565b61080a610f42565b73ffffffffffffffffffffffffffffffffffffffff16610828610b83565b73ffffffffffffffffffffffffffffffffffffffff161461087e576040517f08c379a0000000000000000000000000000000000000000000000000000000008152600401610875906113a6565b60405180910390fd5b6108886000610f4a565b565b6060600060015490506000600254826108a3919061148c565b905060008167ffffffffffffffff8111156108c1576108c06115a3565b5b6040519080825280602002602001820160405280156108fa57816020015b6108e761100e565b8152602001906001900390816108df5790505b5090506000805b84811015610af257600073ffffffffffffffffffffffffffffffffffffffff166005600083815260200190815260200160002060050160009054906101000a900473ffffffffffffffffffffffffffffffffffffffff1673ffffffffffffffffffffffffffffffffffffffff161415610adf57600560008281526020019081526020016000206040518060c00160405290816000820154815260200160018201548152602001600282015481526020016003820160009054906101000a900473ffffffffffffffffffffffffffffffffffffffff1673ffffffffffffffffffffffffffffffffffffffff1673ffffffffffffffffffffffffffffffffffffffff1681526020016004820160009054906101000a900473ffffffffffffffffffffffffffffffffffffffff1673ffffffffffffffffffffffffffffffffffffffff1673ffffffffffffffffffffffffffffffffffffffff1681526020016005820160009054906101000a900473ffffffffffffffffffffffffffffffffffffffff1673ffffffffffffffffffffffffffffffffffffffff1673ffffffffffffffffffffffffffffffffffffffff1681525050838381518110610ac557610ac4611574565b5b60200260200101819052508180610adb906114fc565b9250505b8080610aea906114fc565b915050610901565b508194505050505090565b610b05610f42565b73ffffffffffffffffffffffffffffffffffffffff16610b23610b83565b73ffffffffffffffffffffffffffffffffffffffff1614610b79576040517f08c379a0000000000000000000000000000000000000000000000000000000008152600401610b70906113a6565b60405180910390fd5b8060038190555050565b60008060009054906101000a900473ffffffffffffffffffffffffffffffffffffffff16905090565b600060056000838152602001908152602001600020905080600201543414610bd357600080fd5b600073ffffffffffffffffffffffffffffffffffffffff168160050160009054906101000a900473ffffffffffffffffffffffffffffffffffffffff1673ffffffffffffffffffffffffffffffffffffffff1614610c3057600080fd5b8060030160009054906101000a900473ffffffffffffffffffffffffffffffffffffffff1673ffffffffffffffffffffffffffffffffffffffff166323b872dd8260040160009054906101000a900473ffffffffffffffffffffffffffffffffffffffff163384600101546040518463ffffffff1660e01b8152600401610cb99392919061132d565b600060405180830381600087803b158015610cd357600080fd5b505af1158015610ce7573d6000803e3d6000fd5b505050506000600460008360030160009054906101000a900473ffffffffffffffffffffffffffffffffffffffff1673ffffffffffffffffffffffffffffffffffffffff1673ffffffffffffffffffffffffffffffffffffffff16815260200190815260200160002060008360010154815260200190815260200160002060006101000a81548160ff021916908315150217905550338160050160006101000a81548173ffffffffffffffffffffffffffffffffffffffff021916908373ffffffffffffffffffffffffffffffffffffffff16021790555060026000815480929190610dd2906114fc565b91905055508060040160009054906101000a900473ffffffffffffffffffffffffffffffffffffffff1673ffffffffffffffffffffffffffffffffffffffff166108fc82600201549081150290604051600060405180830381858888f19350505050158015610e45573d6000803e3d6000fd5b505050565b610e52610f42565b73ffffffffffffffffffffffffffffffffffffffff16610e70610b83565b73ffffffffffffffffffffffffffffffffffffffff1614610ec6576040517f08c379a0000000000000000000000000000000000000000000000000000000008152600401610ebd906113a6565b60405180910390fd5b600073ffffffffffffffffffffffffffffffffffffffff168173ffffffffffffffffffffffffffffffffffffffff161415610f36576040517f08c379a0000000000000000000000000000000000000000000000000000000008152600401610f2d90611386565b60405180910390fd5b610f3f81610f4a565b50565b600033905090565b60008060009054906101000a900473ffffffffffffffffffffffffffffffffffffffff169050816000806101000a81548173ffffffffffffffffffffffffffffffffffffffff021916908373ffffffffffffffffffffffffffffffffffffffff1602179055508173ffffffffffffffffffffffffffffffffffffffff168173ffffffffffffffffffffffffffffffffffffffff167f8be0079c531659141344cd1fd0a4f28419497f9722a3daafe3b4186f6b6457e060405160405180910390a35050565b6040518060c00160405280600081526020016000815260200160008152602001600073ffffffffffffffffffffffffffffffffffffffff168152602001600073ffffffffffffffffffffffffffffffffffffffff168152602001600073ffffffffffffffffffffffffffffffffffffffff1681525090565b6000813590506110958161164f565b92915050565b6000815190506110aa8161164f565b92915050565b6000813590506110bf81611666565b92915050565b6000602082840312156110db576110da6115d2565b5b60006110e984828501611086565b91505092915050565b600060208284031215611108576111076115d2565b5b60006111168482850161109b565b91505092915050565b600080600060608486031215611138576111376115d2565b5b600061114686828701611086565b9350506020611157868287016110b0565b9250506040611168868287016110b0565b9150509250925092565b600060208284031215611188576111876115d2565b5b6000611196848285016110b0565b91505092915050565b60006111ab8383611279565b60c08301905092915050565b6111c0816114c0565b82525050565b6111cf816114c0565b82525050565b60006111e082611452565b6111ea818561146a565b93506111f583611442565b8060005b8381101561122657815161120d888261119f565b97506112188361145d565b9250506001810190506111f9565b5085935050505092915050565b600061124060268361147b565b915061124b826115d7565b604082019050919050565b600061126360208361147b565b915061126e82611626565b602082019050919050565b60c08201600082015161128f60008501826112f4565b5060208201516112a260208501826112f4565b5060408201516112b560408501826112f4565b5060608201516112c860608501826111b7565b5060808201516112db60808501826111b7565b5060a08201516112ee60a08501826111b7565b50505050565b6112fd816114f2565b82525050565b61130c816114f2565b82525050565b600060208201905061132760008301846111c6565b92915050565b600060608201905061134260008301866111c6565b61134f60208301856111c6565b61135c6040830184611303565b949350505050565b6000602082019050818103600083015261137e81846111d5565b905092915050565b6000602082019050818103600083015261139f81611233565b9050919050565b600060208201905081810360008301526113bf81611256565b9050919050565b60006020820190506113db6000830184611303565b92915050565b600060c0820190506113f66000830189611303565b6114036020830188611303565b6114106040830187611303565b61141d60608301866111c6565b61142a60808301856111c6565b61143760a08301846111c6565b979650505050505050565b6000819050602082019050919050565b600081519050919050565b6000602082019050919050565b600082825260208201905092915050565b600082825260208201905092915050565b6000611497826114f2565b91506114a2836114f2565b9250828210156114b5576114b4611545565b5b828203905092915050565b60006114cb826114d2565b9050919050565b600073ffffffffffffffffffffffffffffffffffffffff82169050919050565b6000819050919050565b6000611507826114f2565b91507fffffffffffffffffffffffffffffffffffffffffffffffffffffffffffffffff82141561153a57611539611545565b5b600182019050919050565b7f4e487b7100000000000000000000000000000000000000000000000000000000600052601160045260246000fd5b7f4e487b7100000000000000000000000000000000000000000000000000000000600052603260045260246000fd5b7f4e487b7100000000000000000000000000000000000000000000000000000000600052604160045260246000fd5b600080fd5b7f4f776e61626c653a206e6577206f776e657220697320746865207a65726f206160008201527f6464726573730000000000000000000000000000000000000000000000000000602082015250565b7f4f776e61626c653a2063616c6c6572206973206e6f7420746865206f776e6572600082015250565b611658816114c0565b811461166357600080fd5b50565b61166f816114f2565b811461167a57600080fd5b5056fea2646970667358221220638f3cd991c02a477b263350fe5e90a01dc5a4119f8959739539ccf70f75a87e64736f6c63430008070033",
  "immutableReferences": {},
  "source": "pragma solidity ^0.8.7;\r\n\r\nimport \"@openzeppelin/contracts/access/Ownable.sol\";\r\nimport \"@openzeppelin/contracts/token/ERC721/IERC721.sol\";\r\n\r\ncontract JNFTMarket is Ownable {\r\n    event MarketItemCreated(\r\n        uint256 itemId,\r\n        uint256 tokenId,\r\n        uint256 price,\r\n        address nftContract,\r\n        address seller,\r\n        address owner\r\n    );\r\n    constructor(){}\r\n    uint256 private _itemIds; // item counting\r\n    uint256 private _itemSoldCount; //  item \r\n    uint256 listingPrice = 0.001 ether;\r\n\r\n    // _aleradyMarketItem: \r\n    // key:contractAddress, value mapping(uint256(_tokenId)=>bool(true, false)) \r\n    mapping(address => mapping(uint256 => bool)) private _alreadyMarketItem;\r\n    // (nftContract, tokenId)\r\n\r\n    struct MarketItem{\r\n        uint256 itemId;         // JNFTMarket  id\r\n        uint256 tokenId;        // NFT Contract  id\r\n        uint256 price;          //  .\r\n        address nftContract;    // NFT Contract address\r\n        address seller;         //   account address\r\n        address owner;          //   ,  NFT .\r\n    }\r\n\r\n    // key: itemId, value: MarketItem mapping\r\n    mapping(uint256 => MarketItem) private idToMarketItem;\r\n\r\n    /**\r\n     [1.]\r\n     setListingPrice . \r\n     -    , \r\n        listingPrice    .\r\n     */\r\n    function setListingPrice(uint256 _listingPrice) public onlyOwner {\r\n        listingPrice = _listingPrice;\r\n    }\r\n\r\n\r\n    function withdraw(uint256 _amount) public onlyOwner {\r\n        // address owner = owner();\r\n        // owner.transfer(_amount);\r\n        address payable owner = payable(owner());\r\n        owner.transfer(_amount);\r\n    }\r\n    \r\n    /**\r\n     [2.]\r\n     createMarketItem(address _nftContract, uint256 _tokenId, uint256 _price)\r\n     -   .\r\n     - ethereum listingPrice  .\r\n     - _price 0 . ()\r\n     - _itemIds 1  idToMarketItem id  .\r\n\r\n     -  \r\n     */\r\n    function createMarketItem(address _nftContract, uint256 _tokenId, uint256 _price) public payable {\r\n        // 1. ethereum  listingPrice \r\n        require(msg.value == listingPrice);\r\n\r\n        // 2. _nftContract _tokenId     .\r\n        require(!_alreadyMarketItem[_nftContract][_tokenId]);\r\n\r\n        require(_price > 0);\r\n\r\n        //  NFT   JNFT Contract   \r\n        // ( Tx  account  NFT token  JNFT Market  )\r\n        // ==>     _tokenId    . \r\n        address nftOwner = IERC721(_nftContract).ownerOf(_tokenId); // \r\n        require(nftOwner == msg.sender);\r\n\r\n        \r\n\r\n        // 2-1.    \r\n        _alreadyMarketItem[_nftContract][_tokenId] = true;\r\n        \r\n        idToMarketItem[_itemIds] = MarketItem(_itemIds, _tokenId, _price, _nftContract, msg.sender, address(0));\r\n        _itemIds++;\r\n        //   client  marketItem Listing .\r\n        emit MarketItemCreated(_itemIds-1, _tokenId, _price, _nftContract, msg.sender, address(0));\r\n    }\r\n\r\n    /**\r\n       []\r\n     */\r\n    function cancelMarketCreated(uint256 _itemId) public {\r\n        // 1. require     \r\n        MarketItem storage item = idToMarketItem[_itemId];\r\n        require(item.owner == address(0));\r\n        // 2. Tx  account   token  \r\n        // 2-1.\r\n        // address nftOwner = IERC721(item.nftContract).ownerOf(item.tokenId);\r\n        // require(nftOwner == msg.sender);\r\n        // 2-2.\r\n        require(msg.sender == item.seller);\r\n\r\n        // 3.  logic \r\n        // 3-1. _alreadyMarketItem false \r\n        _alreadyMarketItem[item.nftContract][item.tokenId] = false;\r\n        // 3-2. idToMarketItem[_itemId] owner ( seller)\r\n        item.owner = msg.sender;\r\n        // 3-3. _itemSoldCount++;\r\n        _itemSoldCount++;\r\n    }\r\n\r\n    /**\r\n    [3 -  contract ]\r\n    createMarketSale(uint256 _itemId)  .: \r\n    -   .\r\n    - ethereum  MarketItem price  .\r\n    -     .\r\n\r\n    -  JNFT contract  . (JNFT transferFrom )\r\n    - itemsSoldCount   .\r\n    - ethereum seller .\r\n\r\n    -   \r\n     */\r\n    function createMarketSale(uint256 _itemId) public payable{\r\n        MarketItem storage item = idToMarketItem[_itemId];\r\n        require(msg.value == item.price); //   \r\n        require(item.owner == address(0)); //   \r\n\r\n        //-  JNFT contract  . (JNFT transferFrom )\r\n        IERC721(item.nftContract).transferFrom(item.seller, msg.sender, item.tokenId);\r\n\r\n        _alreadyMarketItem[item.nftContract][item.tokenId] = false;\r\n\r\n        item.owner = msg.sender;\r\n        _itemSoldCount++;\r\n        // seller  \r\n        payable(item.seller).transfer(item.price);\r\n    }\r\n\r\n  \r\n\r\n     /**\r\n     [4 -    marketItem]\r\n     fetchUnsoldMarketItems() .\r\n     -   .\r\n     -       OO   .\r\n     - return  MarketItem  .\r\n     -    item return  .\r\n     */\r\n    function fetchUnsoldMarketItems() external view returns(MarketItem[] memory){\r\n        uint256 itemCount = _itemIds; //  listing marketItemCount\r\n        uint256 unSoldItemCount = itemCount - _itemSoldCount;\r\n\r\n        //    marketItem return\r\n        MarketItem[] memory unSoldMarketItems = new MarketItem[](unSoldItemCount);\r\n\r\n        //     MarketItem  \r\n        uint256 count = 0;\r\n        for (uint256 i=0; i<itemCount; i++){\r\n            if(idToMarketItem[i].owner == address(0)){\r\n                unSoldMarketItems[count] = idToMarketItem[i];\r\n                count++;\r\n            }\r\n        }\r\n        return unSoldMarketItems;\r\n    }\r\n\r\n\r\n\r\n\r\n\r\n\r\n\r\n\r\n\r\n\r\n\r\n\r\n\r\n\r\n\r\n\r\n\r\n\r\n\r\n\r\n\r\n\r\n\r\n\r\n\r\n\r\n     /**\r\n     [5 - fetchmarketItem]\r\n     fetchMarketItem(uint256 _itemId) .\r\n     -   .\r\n     -       OO   .\r\n     - return  MarketItem .\r\n     - _itemId  marketItem return  .\r\n      */\r\n}",
  "sourcePath": "C:\\Users\\user\\jeonnam_blockchain\\nft-market-react\\contracts\\JNFTMarket.sol",
  "compiler": {
    "name": "solc",
    "version": "0.8.7+commit.e28d00a7.Emscripten.clang"
  },
  "schemaVersion": "3.4.2",
  "updatedAt": "2021-08-24T09:50:41.093Z",
  "networkType": "ethereum",
  "devdoc": {
    "kind": "dev",
    "methods": {
      "owner()": {
        "details": "Returns the address of the current owner."
      },
      "renounceOwnership()": {
        "details": "Leaves the contract without owner. It will not be possible to call `onlyOwner` functions anymore. Can only be called by the current owner. NOTE: Renouncing ownership will leave the contract without an owner, thereby removing any functionality that is only available to the owner."
      },
      "transferOwnership(address)": {
        "details": "Transfers ownership of the contract to a new account (`newOwner`). Can only be called by the current owner."
      }
    },
    "version": 1
  },
  "userdoc": {
    "kind": "user",
    "methods": {
      "cancelMarketCreated(uint256)": {
        "notice": "[]"
      },
      "createMarketItem(address,uint256,uint256)": {
        "notice": "[2.] createMarketItem(address _nftContract, uint256 _tokenId, uint256 _price) -   . - ethereum listingPrice  . - _price 0 . () - _itemIds 1  idToMarketItem id  . -  "
      },
      "createMarketSale(uint256)": {
        "notice": "[3 -  contract ] createMarketSale(uint256 _itemId)  .:  -   . - ethereum  MarketItem price  . -     . -  JNFT contract  . (JNFT transferFrom ) - itemsSoldCount   . - ethereum seller . -   "
      },
      "fetchUnsoldMarketItems()": {
        "notice": "[4 -    marketItem] fetchUnsoldMarketItems() . -   . -       OO   . - return  MarketItem  . -    item return  ."
      },
      "setListingPrice(uint256)": {
        "notice": "[1.] setListingPrice .  -    ,   listingPrice    ."
      }
    },
    "version": 1
  }
}