{
  "contractName": "JNFTMarket",
  "abi": [
    {
      "inputs": [],
      "stateMutability": "nonpayable",
      "type": "constructor"
    },
    {
      "anonymous": false,
      "inputs": [
        {
          "indexed": false,
          "internalType": "uint256",
          "name": "itemId",
          "type": "uint256"
        },
        {
          "indexed": false,
          "internalType": "uint256",
          "name": "tokenId",
          "type": "uint256"
        },
        {
          "indexed": false,
          "internalType": "uint256",
          "name": "price",
          "type": "uint256"
        },
        {
          "indexed": false,
          "internalType": "address",
          "name": "nftContract",
          "type": "address"
        },
        {
          "indexed": false,
          "internalType": "address",
          "name": "seller",
          "type": "address"
        },
        {
          "indexed": false,
          "internalType": "address",
          "name": "owner",
          "type": "address"
        }
      ],
      "name": "MarketItemCreated",
      "type": "event"
    },
    {
      "anonymous": false,
      "inputs": [
        {
          "indexed": true,
          "internalType": "address",
          "name": "previousOwner",
          "type": "address"
        },
        {
          "indexed": true,
          "internalType": "address",
          "name": "newOwner",
          "type": "address"
        }
      ],
      "name": "OwnershipTransferred",
      "type": "event"
    },
    {
      "inputs": [
        {
          "internalType": "uint256",
          "name": "",
          "type": "uint256"
        }
      ],
      "name": "contractList",
      "outputs": [
        {
          "internalType": "address",
          "name": "",
          "type": "address"
        }
      ],
      "stateMutability": "view",
      "type": "function",
      "constant": true
    },
    {
      "inputs": [],
      "name": "contractNum",
      "outputs": [
        {
          "internalType": "uint256",
          "name": "",
          "type": "uint256"
        }
      ],
      "stateMutability": "view",
      "type": "function",
      "constant": true
    },
    {
      "inputs": [],
      "name": "owner",
      "outputs": [
        {
          "internalType": "address",
          "name": "",
          "type": "address"
        }
      ],
      "stateMutability": "view",
      "type": "function",
      "constant": true
    },
    {
      "inputs": [],
      "name": "renounceOwnership",
      "outputs": [],
      "stateMutability": "nonpayable",
      "type": "function"
    },
    {
      "inputs": [
        {
          "internalType": "address",
          "name": "newOwner",
          "type": "address"
        }
      ],
      "name": "transferOwnership",
      "outputs": [],
      "stateMutability": "nonpayable",
      "type": "function"
    },
    {
      "inputs": [
        {
          "internalType": "address",
          "name": "_nftContract",
          "type": "address"
        }
      ],
      "name": "addNFTContract",
      "outputs": [],
      "stateMutability": "nonpayable",
      "type": "function"
    },
    {
      "inputs": [
        {
          "internalType": "address",
          "name": "_nftContract",
          "type": "address"
        }
      ],
      "name": "addMyTokenContract",
      "outputs": [],
      "stateMutability": "nonpayable",
      "type": "function"
    },
    {
      "inputs": [],
      "name": "fetchContractByUser",
      "outputs": [
        {
          "internalType": "address[]",
          "name": "",
          "type": "address[]"
        }
      ],
      "stateMutability": "view",
      "type": "function",
      "constant": true
    },
    {
      "inputs": [
        {
          "internalType": "uint256",
          "name": "_listingPrice",
          "type": "uint256"
        }
      ],
      "name": "setListingPrice",
      "outputs": [],
      "stateMutability": "nonpayable",
      "type": "function"
    },
    {
      "inputs": [
        {
          "internalType": "uint256",
          "name": "_amount",
          "type": "uint256"
        }
      ],
      "name": "withdraw",
      "outputs": [],
      "stateMutability": "nonpayable",
      "type": "function"
    },
    {
      "inputs": [
        {
          "internalType": "address",
          "name": "_nftContract",
          "type": "address"
        },
        {
          "internalType": "uint256",
          "name": "_tokenId",
          "type": "uint256"
        },
        {
          "internalType": "uint256",
          "name": "_price",
          "type": "uint256"
        }
      ],
      "name": "createMarketItem",
      "outputs": [],
      "stateMutability": "payable",
      "type": "function",
      "payable": true
    },
    {
      "inputs": [
        {
          "internalType": "uint256",
          "name": "_itemId",
          "type": "uint256"
        }
      ],
      "name": "cancelMarketCreated",
      "outputs": [],
      "stateMutability": "nonpayable",
      "type": "function"
    },
    {
      "inputs": [
        {
          "internalType": "uint256",
          "name": "_itemId",
          "type": "uint256"
        }
      ],
      "name": "createMarketSale",
      "outputs": [],
      "stateMutability": "payable",
      "type": "function",
      "payable": true
    },
    {
      "inputs": [],
      "name": "fetchUnsoldMarketItems",
      "outputs": [
        {
          "components": [
            {
              "internalType": "uint256",
              "name": "itemId",
              "type": "uint256"
            },
            {
              "internalType": "uint256",
              "name": "tokenId",
              "type": "uint256"
            },
            {
              "internalType": "uint256",
              "name": "price",
              "type": "uint256"
            },
            {
              "internalType": "address",
              "name": "nftContract",
              "type": "address"
            },
            {
              "internalType": "address",
              "name": "seller",
              "type": "address"
            },
            {
              "internalType": "address",
              "name": "owner",
              "type": "address"
            }
          ],
          "internalType": "struct JNFTMarket.MarketItem[]",
          "name": "",
          "type": "tuple[]"
        }
      ],
      "stateMutability": "view",
      "type": "function",
      "constant": true
    }
  ],
  "bytecode": "0x608060405266038d7ea4c6800060035534801561001b57600080fd5b5061003861002d61003d60201b60201c565b61004560201b60201c565b610109565b600033905090565b60008060009054906101000a900473ffffffffffffffffffffffffffffffffffffffff169050816000806101000a81548173ffffffffffffffffffffffffffffffffffffffff021916908373ffffffffffffffffffffffffffffffffffffffff1602179055508173ffffffffffffffffffffffffffffffffffffffff168173ffffffffffffffffffffffffffffffffffffffff167f8be0079c531659141344cd1fd0a4f28419497f9722a3daafe3b4186f6b6457e060405160405180910390a35050565b611c86806101186000396000f3fe6080604052600436106100dd5760003560e01c80637c726b691161007f578063cfac5d7c11610059578063cfac5d7c1461026a578063d5d8791914610293578063f2fde38b146102bc578063f703bdd9146102e5576100dd565b80637c726b69146101fa5780638da5cb5b14610223578063be9af5361461024e576100dd565b806358eb2df5116100bb57806358eb2df51461015f5780636a5bb5d81461017b578063715018a6146101b85780637628ff55146101cf576100dd565b806315310a2a146100e2578063298231c01461010b5780632e1a7d4d14610136575b600080fd5b3480156100ee57600080fd5b5061010960048036038101906101049190611647565b610310565b005b34801561011757600080fd5b506101206104d0565b60405161012d9190611960565b60405180910390f35b34801561014257600080fd5b5061015d60048036038101906101589190611647565b6104d6565b005b610179600480360381019061017491906115f4565b6105a9565b005b34801561018757600080fd5b506101a2600480360381019061019d9190611647565b610944565b6040516101af919061188a565b60405180910390f35b3480156101c457600080fd5b506101cd610983565b005b3480156101db57600080fd5b506101e4610a0b565b6040516101f191906118fe565b60405180910390f35b34801561020657600080fd5b50610221600480360381019061021c9190611647565b610c7e565b005b34801561022f57600080fd5b50610238610d04565b604051610245919061188a565b60405180910390f35b61026860048036038101906102639190611647565b610d2d565b005b34801561027657600080fd5b50610291600480360381019061028c919061159a565b610fcb565b005b34801561029f57600080fd5b506102ba60048036038101906102b5919061159a565b61105c565b005b3480156102c857600080fd5b506102e360048036038101906102de919061159a565b61119b565b005b3480156102f157600080fd5b506102fa611293565b60405161030791906118dc565b60405180910390f35b6000600560008381526020019081526020016000209050600073ffffffffffffffffffffffffffffffffffffffff168160050160009054906101000a900473ffffffffffffffffffffffffffffffffffffffff1673ffffffffffffffffffffffffffffffffffffffff161461038457600080fd5b8060040160009054906101000a900473ffffffffffffffffffffffffffffffffffffffff1673ffffffffffffffffffffffffffffffffffffffff163373ffffffffffffffffffffffffffffffffffffffff16146103e057600080fd5b6000600460008360030160009054906101000a900473ffffffffffffffffffffffffffffffffffffffff1673ffffffffffffffffffffffffffffffffffffffff1673ffffffffffffffffffffffffffffffffffffffff16815260200190815260200160002060008360010154815260200190815260200160002060006101000a81548160ff021916908315150217905550338160050160006101000a81548173ffffffffffffffffffffffffffffffffffffffff021916908373ffffffffffffffffffffffffffffffffffffffff160217905550600260008154809291906104c790611acf565b91905055505050565b60065481565b6104de61135e565b73ffffffffffffffffffffffffffffffffffffffff166104fc610d04565b73ffffffffffffffffffffffffffffffffffffffff1614610552576040517f08c379a000000000000000000000000000000000000000000000000000000000815260040161054990611940565b60405180910390fd5b600061055c610d04565b90508073ffffffffffffffffffffffffffffffffffffffff166108fc839081150290604051600060405180830381858888f193505050501580156105a4573d6000803e3d6000fd5b505050565b60035434146105b757600080fd5b600460008473ffffffffffffffffffffffffffffffffffffffff1673ffffffffffffffffffffffffffffffffffffffff168152602001908152602001600020600083815260200190815260200160002060009054906101000a900460ff161561061f57600080fd5b6000811161062c57600080fd5b60008373ffffffffffffffffffffffffffffffffffffffff16636352211e846040518263ffffffff1660e01b81526004016106679190611960565b60206040518083038186803b15801561067f57600080fd5b505afa158015610693573d6000803e3d6000fd5b505050506040513d601f19601f820116820180604052508101906106b791906115c7565b90503373ffffffffffffffffffffffffffffffffffffffff168173ffffffffffffffffffffffffffffffffffffffff16146106f157600080fd5b6001600460008673ffffffffffffffffffffffffffffffffffffffff1673ffffffffffffffffffffffffffffffffffffffff168152602001908152602001600020600085815260200190815260200160002060006101000a81548160ff0219169083151502179055506040518060c0016040528060015481526020018481526020018381526020018573ffffffffffffffffffffffffffffffffffffffff1681526020013373ffffffffffffffffffffffffffffffffffffffff168152602001600073ffffffffffffffffffffffffffffffffffffffff1681525060056000600154815260200190815260200160002060008201518160000155602082015181600101556040820151816002015560608201518160030160006101000a81548173ffffffffffffffffffffffffffffffffffffffff021916908373ffffffffffffffffffffffffffffffffffffffff16021790555060808201518160040160006101000a81548173ffffffffffffffffffffffffffffffffffffffff021916908373ffffffffffffffffffffffffffffffffffffffff16021790555060a08201518160050160006101000a81548173ffffffffffffffffffffffffffffffffffffffff021916908373ffffffffffffffffffffffffffffffffffffffff160217905550905050600160008154809291906108ea90611acf565b91905055507f9647d2e9a23c1809a0461ae22d7688427bce1e7e0b92d0cb92b0e7f4dd72dd9c6001805461091e9190611a5f565b8484873360006040516109369695949392919061197b565b60405180910390a150505050565b6007818154811061095457600080fd5b906000526020600020016000915054906101000a900473ffffffffffffffffffffffffffffffffffffffff1681565b61098b61135e565b73ffffffffffffffffffffffffffffffffffffffff166109a9610d04565b73ffffffffffffffffffffffffffffffffffffffff16146109ff576040517f08c379a00000000000000000000000000000000000000000000000000000000081526004016109f690611940565b60405180910390fd5b610a096000611366565b565b606060006001549050600060025482610a249190611a5f565b905060008167ffffffffffffffff811115610a4257610a41611b76565b5b604051908082528060200260200182016040528015610a7b57816020015b610a686114ce565b815260200190600190039081610a605790505b5090506000805b84811015610c7357600073ffffffffffffffffffffffffffffffffffffffff166005600083815260200190815260200160002060050160009054906101000a900473ffffffffffffffffffffffffffffffffffffffff1673ffffffffffffffffffffffffffffffffffffffff161415610c6057600560008281526020019081526020016000206040518060c00160405290816000820154815260200160018201548152602001600282015481526020016003820160009054906101000a900473ffffffffffffffffffffffffffffffffffffffff1673ffffffffffffffffffffffffffffffffffffffff1673ffffffffffffffffffffffffffffffffffffffff1681526020016004820160009054906101000a900473ffffffffffffffffffffffffffffffffffffffff1673ffffffffffffffffffffffffffffffffffffffff1673ffffffffffffffffffffffffffffffffffffffff1681526020016005820160009054906101000a900473ffffffffffffffffffffffffffffffffffffffff1673ffffffffffffffffffffffffffffffffffffffff1673ffffffffffffffffffffffffffffffffffffffff1681525050838381518110610c4657610c45611b47565b5b60200260200101819052508180610c5c90611acf565b9250505b8080610c6b90611acf565b915050610a82565b508194505050505090565b610c8661135e565b73ffffffffffffffffffffffffffffffffffffffff16610ca4610d04565b73ffffffffffffffffffffffffffffffffffffffff1614610cfa576040517f08c379a0000000000000000000000000000000000000000000000000000000008152600401610cf190611940565b60405180910390fd5b8060038190555050565b60008060009054906101000a900473ffffffffffffffffffffffffffffffffffffffff16905090565b600060056000838152602001908152602001600020905080600201543414610d5457600080fd5b600073ffffffffffffffffffffffffffffffffffffffff168160050160009054906101000a900473ffffffffffffffffffffffffffffffffffffffff1673ffffffffffffffffffffffffffffffffffffffff1614610db157600080fd5b8060030160009054906101000a900473ffffffffffffffffffffffffffffffffffffffff1673ffffffffffffffffffffffffffffffffffffffff166323b872dd8260040160009054906101000a900473ffffffffffffffffffffffffffffffffffffffff163384600101546040518463ffffffff1660e01b8152600401610e3a939291906118a5565b600060405180830381600087803b158015610e5457600080fd5b505af1158015610e68573d6000803e3d6000fd5b505050506000600460008360030160009054906101000a900473ffffffffffffffffffffffffffffffffffffffff1673ffffffffffffffffffffffffffffffffffffffff1673ffffffffffffffffffffffffffffffffffffffff16815260200190815260200160002060008360010154815260200190815260200160002060006101000a81548160ff021916908315150217905550338160050160006101000a81548173ffffffffffffffffffffffffffffffffffffffff021916908373ffffffffffffffffffffffffffffffffffffffff16021790555060026000815480929190610f5390611acf565b91905055508060040160009054906101000a900473ffffffffffffffffffffffffffffffffffffffff1673ffffffffffffffffffffffffffffffffffffffff166108fc82600201549081150290604051600060405180830381858888f19350505050158015610fc6573d6000803e3d6000fd5b505050565b610fd48161142a565b15610fde57600080fd5b6007819080600181540180825580915050600190039060005260206000200160009091909190916101000a81548173ffffffffffffffffffffffffffffffffffffffff021916908373ffffffffffffffffffffffffffffffffffffffff1602179055506006600081548092919061105490611acf565b919050555050565b60008173ffffffffffffffffffffffffffffffffffffffff166370a08231336040518263ffffffff1660e01b8152600401611097919061188a565b60206040518083038186803b1580156110af57600080fd5b505afa1580156110c3573d6000803e3d6000fd5b505050506040513d601f19601f820116820180604052508101906110e79190611674565b905060008110156110f757600080fd5b600860003373ffffffffffffffffffffffffffffffffffffffff1673ffffffffffffffffffffffffffffffffffffffff168152602001908152602001600020829080600181540180825580915050600190039060005260206000200160009091909190916101000a81548173ffffffffffffffffffffffffffffffffffffffff021916908373ffffffffffffffffffffffffffffffffffffffff1602179055505050565b6111a361135e565b73ffffffffffffffffffffffffffffffffffffffff166111c1610d04565b73ffffffffffffffffffffffffffffffffffffffff1614611217576040517f08c379a000000000000000000000000000000000000000000000000000000000815260040161120e90611940565b60405180910390fd5b600073ffffffffffffffffffffffffffffffffffffffff168173ffffffffffffffffffffffffffffffffffffffff161415611287576040517f08c379a000000000000000000000000000000000000000000000000000000000815260040161127e90611920565b60405180910390fd5b61129081611366565b50565b6060600860003373ffffffffffffffffffffffffffffffffffffffff1673ffffffffffffffffffffffffffffffffffffffff16815260200190815260200160002080548060200260200160405190810160405280929190818152602001828054801561135457602002820191906000526020600020905b8160009054906101000a900473ffffffffffffffffffffffffffffffffffffffff1673ffffffffffffffffffffffffffffffffffffffff168152602001906001019080831161130a575b5050505050905090565b600033905090565b60008060009054906101000a900473ffffffffffffffffffffffffffffffffffffffff169050816000806101000a81548173ffffffffffffffffffffffffffffffffffffffff021916908373ffffffffffffffffffffffffffffffffffffffff1602179055508173ffffffffffffffffffffffffffffffffffffffff168173ffffffffffffffffffffffffffffffffffffffff167f8be0079c531659141344cd1fd0a4f28419497f9722a3daafe3b4186f6b6457e060405160405180910390a35050565b60008060005b6006548110156114c4578373ffffffffffffffffffffffffffffffffffffffff166007828154811061146557611464611b47565b5b9060005260206000200160009054906101000a900473ffffffffffffffffffffffffffffffffffffffff1673ffffffffffffffffffffffffffffffffffffffff1614156114b157600191505b80806114bc90611acf565b915050611430565b5080915050919050565b6040518060c00160405280600081526020016000815260200160008152602001600073ffffffffffffffffffffffffffffffffffffffff168152602001600073ffffffffffffffffffffffffffffffffffffffff168152602001600073ffffffffffffffffffffffffffffffffffffffff1681525090565b60008135905061155581611c22565b92915050565b60008151905061156a81611c22565b92915050565b60008135905061157f81611c39565b92915050565b60008151905061159481611c39565b92915050565b6000602082840312156115b0576115af611ba5565b5b60006115be84828501611546565b91505092915050565b6000602082840312156115dd576115dc611ba5565b5b60006115eb8482850161155b565b91505092915050565b60008060006060848603121561160d5761160c611ba5565b5b600061161b86828701611546565b935050602061162c86828701611570565b925050604061163d86828701611570565b9150509250925092565b60006020828403121561165d5761165c611ba5565b5b600061166b84828501611570565b91505092915050565b60006020828403121561168a57611689611ba5565b5b600061169884828501611585565b91505092915050565b60006116ad83836116d1565b60208301905092915050565b60006116c583836117f1565b60c08301905092915050565b6116da81611a93565b82525050565b6116e981611a93565b82525050565b60006116fa826119fc565b6117048185611a2c565b935061170f836119dc565b8060005b8381101561174057815161172788826116a1565b975061173283611a12565b925050600181019050611713565b5085935050505092915050565b600061175882611a07565b6117628185611a3d565b935061176d836119ec565b8060005b8381101561179e57815161178588826116b9565b975061179083611a1f565b925050600181019050611771565b5085935050505092915050565b60006117b8602683611a4e565b91506117c382611baa565b604082019050919050565b60006117db602083611a4e565b91506117e682611bf9565b602082019050919050565b60c082016000820151611807600085018261186c565b50602082015161181a602085018261186c565b50604082015161182d604085018261186c565b50606082015161184060608501826116d1565b50608082015161185360808501826116d1565b5060a082015161186660a08501826116d1565b50505050565b61187581611ac5565b82525050565b61188481611ac5565b82525050565b600060208201905061189f60008301846116e0565b92915050565b60006060820190506118ba60008301866116e0565b6118c760208301856116e0565b6118d4604083018461187b565b949350505050565b600060208201905081810360008301526118f681846116ef565b905092915050565b60006020820190508181036000830152611918818461174d565b905092915050565b60006020820190508181036000830152611939816117ab565b9050919050565b60006020820190508181036000830152611959816117ce565b9050919050565b6000602082019050611975600083018461187b565b92915050565b600060c082019050611990600083018961187b565b61199d602083018861187b565b6119aa604083018761187b565b6119b760608301866116e0565b6119c460808301856116e0565b6119d160a08301846116e0565b979650505050505050565b6000819050602082019050919050565b6000819050602082019050919050565b600081519050919050565b600081519050919050565b6000602082019050919050565b6000602082019050919050565b600082825260208201905092915050565b600082825260208201905092915050565b600082825260208201905092915050565b6000611a6a82611ac5565b9150611a7583611ac5565b925082821015611a8857611a87611b18565b5b828203905092915050565b6000611a9e82611aa5565b9050919050565b600073ffffffffffffffffffffffffffffffffffffffff82169050919050565b6000819050919050565b6000611ada82611ac5565b91507fffffffffffffffffffffffffffffffffffffffffffffffffffffffffffffffff821415611b0d57611b0c611b18565b5b600182019050919050565b7f4e487b7100000000000000000000000000000000000000000000000000000000600052601160045260246000fd5b7f4e487b7100000000000000000000000000000000000000000000000000000000600052603260045260246000fd5b7f4e487b7100000000000000000000000000000000000000000000000000000000600052604160045260246000fd5b600080fd5b7f4f776e61626c653a206e6577206f776e657220697320746865207a65726f206160008201527f6464726573730000000000000000000000000000000000000000000000000000602082015250565b7f4f776e61626c653a2063616c6c6572206973206e6f7420746865206f776e6572600082015250565b611c2b81611a93565b8114611c3657600080fd5b50565b611c4281611ac5565b8114611c4d57600080fd5b5056fea2646970667358221220e089c71db872098f12fbb538a4128129b87ca4a0192985f7baaa94577f8dd9be64736f6c63430008070033",
  "immutableReferences": {},
  "source": "pragma solidity ^0.8.7;\r\n\r\nimport \"@openzeppelin/contracts/access/Ownable.sol\";\r\nimport \"@openzeppelin/contracts/token/ERC721/IERC721.sol\";\r\n\r\ncontract JNFTMarket is Ownable {\r\n    event MarketItemCreated(\r\n        uint256 itemId,\r\n        uint256 tokenId,\r\n        uint256 price,\r\n        address nftContract,\r\n        address seller,\r\n        address owner\r\n    );\r\n    constructor(){}\r\n    uint256 private _itemIds; // item counting\r\n    uint256 private _itemSoldCount; //  item \r\n    uint256 listingPrice = 0.001 ether;\r\n\r\n    // _aleradyMarketItem: \r\n    // key:contractAddress, value mapping(uint256(_tokenId)=>bool(true, false)) \r\n    mapping(address => mapping(uint256 => bool)) private _alreadyMarketItem;\r\n    // (nftContract, tokenId)\r\n\r\n\r\n    struct MarketItem{\r\n        uint256 itemId;         // JNFTMarket  id\r\n        uint256 tokenId;        // NFT Contract  id\r\n        uint256 price;          //  .\r\n        address nftContract;    // NFT Contract address\r\n        address seller;         //   account address\r\n        address owner;          //   ,  NFT .\r\n    }\r\n\r\n    // key: itemId, value: MarketItem mapping\r\n    mapping(uint256 => MarketItem) private idToMarketItem;\r\n\r\n    // nftContract  \r\n    uint256 public contractNum;\r\n    address[] public contractList;\r\n\r\n    // user nftContract \r\n    mapping(address => address[]) userNFTContract;\r\n\r\n    // 1. nftContract  (contractList .)\r\n    function addNFTContract(address _nftContract) public {\r\n        require(!_existNFTContract(_nftContract));\r\n        contractList.push(_nftContract);\r\n        contractNum++;\r\n    }\r\n    function _existNFTContract(address _nftContract) internal view returns(bool){\r\n        bool result;\r\n        for (uint256 i=0; i<contractNum; i++){\r\n            if (contractList[i] == _nftContract){\r\n                result = true;\r\n            }\r\n        }\r\n        return result;\r\n    }\r\n\r\n    function addMyTokenContract(address _nftContract) public {\r\n        uint256 balanceOf = IERC721(_nftContract).balanceOf(msg.sender);\r\n        require(balanceOf >= 0);\r\n        userNFTContract[msg.sender].push(_nftContract);\r\n    }\r\n\r\n    function fetchContractByUser() public view returns(address[] memory) {\r\n        return userNFTContract[msg.sender];\r\n    }\r\n\r\n    /**\r\n     [1.]\r\n     setListingPrice . \r\n     -    , \r\n        listingPrice    .\r\n     */\r\n    function setListingPrice(uint256 _listingPrice) public onlyOwner {\r\n        listingPrice = _listingPrice;\r\n    }\r\n\r\n\r\n    function withdraw(uint256 _amount) public onlyOwner {\r\n        // address owner = owner();\r\n        // owner.transfer(_amount);\r\n        address payable owner = payable(owner());\r\n        owner.transfer(_amount);\r\n    }\r\n    \r\n    /**\r\n     [2.]\r\n     createMarketItem(address _nftContract, uint256 _tokenId, uint256 _price)\r\n     -   .\r\n     - ethereum listingPrice  .\r\n     - _price 0 . ()\r\n     - _itemIds 1  idToMarketItem id  .\r\n\r\n     -  \r\n     */\r\n    function createMarketItem(address _nftContract, uint256 _tokenId, uint256 _price) public payable {\r\n        // 1. ethereum  listingPrice \r\n        require(msg.value == listingPrice);\r\n\r\n        // 2. _nftContract _tokenId     .\r\n        require(!_alreadyMarketItem[_nftContract][_tokenId]);\r\n\r\n        require(_price > 0);\r\n\r\n        //  NFT   JNFT Contract   \r\n        // ( Tx  account  NFT token  JNFT Market  )\r\n        // ==>     _tokenId    . \r\n        address nftOwner = IERC721(_nftContract).ownerOf(_tokenId); // \r\n        require(nftOwner == msg.sender);\r\n\r\n        \r\n\r\n        // 2-1.    \r\n        _alreadyMarketItem[_nftContract][_tokenId] = true;\r\n        \r\n        idToMarketItem[_itemIds] = MarketItem(_itemIds, _tokenId, _price, _nftContract, msg.sender, address(0));\r\n        _itemIds++;\r\n        //   client  marketItem Listing .\r\n        emit MarketItemCreated(_itemIds-1, _tokenId, _price, _nftContract, msg.sender, address(0));\r\n    }\r\n\r\n    /**\r\n       []\r\n     */\r\n    function cancelMarketCreated(uint256 _itemId) public {\r\n        // 1. require     \r\n        MarketItem storage item = idToMarketItem[_itemId];\r\n        require(item.owner == address(0));\r\n        // 2. Tx  account   token  \r\n        // 2-1.\r\n        // address nftOwner = IERC721(item.nftContract).ownerOf(item.tokenId);\r\n        // require(nftOwner == msg.sender);\r\n        // 2-2.\r\n        require(msg.sender == item.seller);\r\n\r\n        // 3.  logic \r\n        // 3-1. _alreadyMarketItem false \r\n        _alreadyMarketItem[item.nftContract][item.tokenId] = false;\r\n        // 3-2. idToMarketItem[_itemId] owner ( seller)\r\n        item.owner = msg.sender;\r\n        // 3-3. _itemSoldCount++;\r\n        _itemSoldCount++;\r\n    }\r\n\r\n    /**\r\n    [3 -  contract ]\r\n    createMarketSale(uint256 _itemId)  .: \r\n    -   .\r\n    - ethereum  MarketItem price  .\r\n    -     .\r\n\r\n    -  JNFT contract  . (JNFT transferFrom )\r\n    - itemsSoldCount   .\r\n    - ethereum seller .\r\n\r\n    -   \r\n     */\r\n    function createMarketSale(uint256 _itemId) public payable{\r\n        MarketItem storage item = idToMarketItem[_itemId];\r\n        require(msg.value == item.price); //   \r\n        require(item.owner == address(0)); //   \r\n\r\n        //-  JNFT contract  . (JNFT transferFrom )\r\n        IERC721(item.nftContract).transferFrom(item.seller, msg.sender, item.tokenId);\r\n\r\n        _alreadyMarketItem[item.nftContract][item.tokenId] = false;\r\n\r\n        item.owner = msg.sender;\r\n        _itemSoldCount++;\r\n        // seller  \r\n        payable(item.seller).transfer(item.price);\r\n    }\r\n\r\n     /**\r\n     [4 -    marketItem]\r\n     fetchUnsoldMarketItems() .\r\n     -   .\r\n     -       OO   .\r\n     - return  MarketItem  .\r\n     -    item return  .\r\n     */\r\n    function fetchUnsoldMarketItems() external view returns(MarketItem[] memory){\r\n        uint256 itemCount = _itemIds; //  listing marketItemCount\r\n        uint256 unSoldItemCount = itemCount - _itemSoldCount;\r\n\r\n        //    marketItem return\r\n        MarketItem[] memory unSoldMarketItems = new MarketItem[](unSoldItemCount);\r\n\r\n        //     MarketItem  \r\n        uint256 count = 0;\r\n        for (uint256 i=0; i<itemCount; i++){\r\n            if(idToMarketItem[i].owner == address(0)){\r\n                unSoldMarketItems[count] = idToMarketItem[i];\r\n                count++;\r\n            }\r\n        }\r\n        return unSoldMarketItems;\r\n    }\r\n\r\n\r\n\r\n\r\n\r\n\r\n\r\n\r\n\r\n\r\n\r\n\r\n\r\n\r\n\r\n\r\n\r\n\r\n\r\n\r\n\r\n\r\n\r\n\r\n\r\n\r\n     /**\r\n     [5 - fetchmarketItem]\r\n     fetchMarketItem(uint256 _itemId) .\r\n     -   .\r\n     -       OO   .\r\n     - return  MarketItem .\r\n     - _itemId  marketItem return  .\r\n      */\r\n}",
  "sourcePath": "C:\\Users\\user\\jeonnam_blockchain\\nft-market-react\\contracts\\JNFTMarket.sol",
  "compiler": {
    "name": "solc",
    "version": "0.8.7+commit.e28d00a7.Emscripten.clang"
  },
  "schemaVersion": "3.4.2",
  "updatedAt": "2021-08-24T12:23:55.212Z",
  "networkType": "ethereum",
  "devdoc": {
    "kind": "dev",
    "methods": {
      "owner()": {
        "details": "Returns the address of the current owner."
      },
      "renounceOwnership()": {
        "details": "Leaves the contract without owner. It will not be possible to call `onlyOwner` functions anymore. Can only be called by the current owner. NOTE: Renouncing ownership will leave the contract without an owner, thereby removing any functionality that is only available to the owner."
      },
      "transferOwnership(address)": {
        "details": "Transfers ownership of the contract to a new account (`newOwner`). Can only be called by the current owner."
      }
    },
    "version": 1
  },
  "userdoc": {
    "kind": "user",
    "methods": {
      "cancelMarketCreated(uint256)": {
        "notice": "[]"
      },
      "createMarketItem(address,uint256,uint256)": {
        "notice": "[2.] createMarketItem(address _nftContract, uint256 _tokenId, uint256 _price) -   . - ethereum listingPrice  . - _price 0 . () - _itemIds 1  idToMarketItem id  . -  "
      },
      "createMarketSale(uint256)": {
        "notice": "[3 -  contract ] createMarketSale(uint256 _itemId)  .:  -   . - ethereum  MarketItem price  . -     . -  JNFT contract  . (JNFT transferFrom ) - itemsSoldCount   . - ethereum seller . -   "
      },
      "fetchUnsoldMarketItems()": {
        "notice": "[4 -    marketItem] fetchUnsoldMarketItems() . -   . -       OO   . - return  MarketItem  . -    item return  ."
      },
      "setListingPrice(uint256)": {
        "notice": "[1.] setListingPrice .  -    ,   listingPrice    ."
      }
    },
    "version": 1
  }
}