{
  "contractName": "JNFTMarket",
  "abi": [
    {
      "inputs": [],
      "stateMutability": "nonpayable",
      "type": "constructor"
    },
    {
      "anonymous": false,
      "inputs": [
        {
          "indexed": false,
          "internalType": "uint256",
          "name": "itemId",
          "type": "uint256"
        },
        {
          "indexed": false,
          "internalType": "uint256",
          "name": "tokenId",
          "type": "uint256"
        },
        {
          "indexed": false,
          "internalType": "uint256",
          "name": "price",
          "type": "uint256"
        },
        {
          "indexed": false,
          "internalType": "address",
          "name": "nftContract",
          "type": "address"
        },
        {
          "indexed": false,
          "internalType": "address",
          "name": "seller",
          "type": "address"
        },
        {
          "indexed": false,
          "internalType": "address",
          "name": "owner",
          "type": "address"
        }
      ],
      "name": "MarketItemCreated",
      "type": "event"
    },
    {
      "anonymous": false,
      "inputs": [
        {
          "indexed": true,
          "internalType": "address",
          "name": "previousOwner",
          "type": "address"
        },
        {
          "indexed": true,
          "internalType": "address",
          "name": "newOwner",
          "type": "address"
        }
      ],
      "name": "OwnershipTransferred",
      "type": "event"
    },
    {
      "inputs": [],
      "name": "owner",
      "outputs": [
        {
          "internalType": "address",
          "name": "",
          "type": "address"
        }
      ],
      "stateMutability": "view",
      "type": "function",
      "constant": true
    },
    {
      "inputs": [],
      "name": "renounceOwnership",
      "outputs": [],
      "stateMutability": "nonpayable",
      "type": "function"
    },
    {
      "inputs": [
        {
          "internalType": "address",
          "name": "newOwner",
          "type": "address"
        }
      ],
      "name": "transferOwnership",
      "outputs": [],
      "stateMutability": "nonpayable",
      "type": "function"
    },
    {
      "inputs": [
        {
          "internalType": "uint256",
          "name": "_listingPrice",
          "type": "uint256"
        }
      ],
      "name": "setListingPrice",
      "outputs": [],
      "stateMutability": "nonpayable",
      "type": "function"
    },
    {
      "inputs": [
        {
          "internalType": "uint256",
          "name": "_amount",
          "type": "uint256"
        }
      ],
      "name": "withdraw",
      "outputs": [],
      "stateMutability": "nonpayable",
      "type": "function"
    },
    {
      "inputs": [
        {
          "internalType": "address",
          "name": "_nftContract",
          "type": "address"
        },
        {
          "internalType": "uint256",
          "name": "_tokenId",
          "type": "uint256"
        },
        {
          "internalType": "uint256",
          "name": "_price",
          "type": "uint256"
        }
      ],
      "name": "createMarketItem",
      "outputs": [],
      "stateMutability": "payable",
      "type": "function",
      "payable": true
    },
    {
      "inputs": [
        {
          "internalType": "uint256",
          "name": "_itemId",
          "type": "uint256"
        }
      ],
      "name": "createMarketSale",
      "outputs": [],
      "stateMutability": "payable",
      "type": "function",
      "payable": true
    },
    {
      "inputs": [],
      "name": "fetchUnsoldMarketItems",
      "outputs": [
        {
          "components": [
            {
              "internalType": "uint256",
              "name": "itemId",
              "type": "uint256"
            },
            {
              "internalType": "uint256",
              "name": "tokenId",
              "type": "uint256"
            },
            {
              "internalType": "uint256",
              "name": "price",
              "type": "uint256"
            },
            {
              "internalType": "address",
              "name": "nftContract",
              "type": "address"
            },
            {
              "internalType": "address",
              "name": "seller",
              "type": "address"
            },
            {
              "internalType": "address",
              "name": "owner",
              "type": "address"
            }
          ],
          "internalType": "struct JNFTMarket.MarketItem[]",
          "name": "",
          "type": "tuple[]"
        }
      ],
      "stateMutability": "view",
      "type": "function",
      "constant": true
    }
  ],
  "bytecode": "0x608060405266038d7ea4c6800060035534801561001b57600080fd5b5061003861002d61003d60201b60201c565b61004560201b60201c565b610109565b600033905090565b60008060009054906101000a900473ffffffffffffffffffffffffffffffffffffffff169050816000806101000a81548173ffffffffffffffffffffffffffffffffffffffff021916908373ffffffffffffffffffffffffffffffffffffffff1602179055508173ffffffffffffffffffffffffffffffffffffffff168173ffffffffffffffffffffffffffffffffffffffff167f8be0079c531659141344cd1fd0a4f28419497f9722a3daafe3b4186f6b6457e060405160405180910390a35050565b61135d806101186000396000f3fe60806040526004361061007b5760003560e01c80637c726b691161004e5780637c726b69146101075780638da5cb5b14610130578063be9af5361461015b578063f2fde38b146101775761007b565b80632e1a7d4d1461008057806358eb2df5146100a9578063715018a6146100c55780637628ff55146100dc575b600080fd5b34801561008c57600080fd5b506100a760048036038101906100a29190610e1c565b6101a0565b005b6100c360048036038101906100be9190610dc9565b610273565b005b3480156100d157600080fd5b506100da61053d565b005b3480156100e857600080fd5b506100f16105c5565b6040516100fe919061100e565b60405180910390f35b34801561011357600080fd5b5061012e60048036038101906101299190610e1c565b610838565b005b34801561013c57600080fd5b506101456108be565b6040516101529190610fbc565b60405180910390f35b61017560048036038101906101709190610e1c565b6108e7565b005b34801561018357600080fd5b5061019e60048036038101906101999190610d6f565b610af4565b005b6101a8610bec565b73ffffffffffffffffffffffffffffffffffffffff166101c66108be565b73ffffffffffffffffffffffffffffffffffffffff161461021c576040517f08c379a000000000000000000000000000000000000000000000000000000000815260040161021390611050565b60405180910390fd5b60006102266108be565b90508073ffffffffffffffffffffffffffffffffffffffff166108fc839081150290604051600060405180830381858888f1935050505015801561026e573d6000803e3d6000fd5b505050565b600354341461028157600080fd5b6000811161028e57600080fd5b60008373ffffffffffffffffffffffffffffffffffffffff16636352211e846040518263ffffffff1660e01b81526004016102c99190611070565b60206040518083038186803b1580156102e157600080fd5b505afa1580156102f5573d6000803e3d6000fd5b505050506040513d601f19601f820116820180604052508101906103199190610d9c565b90503373ffffffffffffffffffffffffffffffffffffffff168173ffffffffffffffffffffffffffffffffffffffff161461035357600080fd5b6040518060c0016040528060015481526020018481526020018381526020018573ffffffffffffffffffffffffffffffffffffffff1681526020013373ffffffffffffffffffffffffffffffffffffffff168152602001600073ffffffffffffffffffffffffffffffffffffffff1681525060046000600154815260200190815260200160002060008201518160000155602082015181600101556040820151816002015560608201518160030160006101000a81548173ffffffffffffffffffffffffffffffffffffffff021916908373ffffffffffffffffffffffffffffffffffffffff16021790555060808201518160040160006101000a81548173ffffffffffffffffffffffffffffffffffffffff021916908373ffffffffffffffffffffffffffffffffffffffff16021790555060a08201518160050160006101000a81548173ffffffffffffffffffffffffffffffffffffffff021916908373ffffffffffffffffffffffffffffffffffffffff160217905550905050600160008154809291906104e3906111a6565b91905055507f9647d2e9a23c1809a0461ae22d7688427bce1e7e0b92d0cb92b0e7f4dd72dd9c600180546105179190611136565b84848733600060405161052f9695949392919061108b565b60405180910390a150505050565b610545610bec565b73ffffffffffffffffffffffffffffffffffffffff166105636108be565b73ffffffffffffffffffffffffffffffffffffffff16146105b9576040517f08c379a00000000000000000000000000000000000000000000000000000000081526004016105b090611050565b60405180910390fd5b6105c36000610bf4565b565b6060600060015490506000600254826105de9190611136565b905060008167ffffffffffffffff8111156105fc576105fb61124d565b5b60405190808252806020026020018201604052801561063557816020015b610622610cb8565b81526020019060019003908161061a5790505b5090506000805b8481101561082d57600073ffffffffffffffffffffffffffffffffffffffff166004600083815260200190815260200160002060050160009054906101000a900473ffffffffffffffffffffffffffffffffffffffff1673ffffffffffffffffffffffffffffffffffffffff16141561081a57600460008281526020019081526020016000206040518060c00160405290816000820154815260200160018201548152602001600282015481526020016003820160009054906101000a900473ffffffffffffffffffffffffffffffffffffffff1673ffffffffffffffffffffffffffffffffffffffff1673ffffffffffffffffffffffffffffffffffffffff1681526020016004820160009054906101000a900473ffffffffffffffffffffffffffffffffffffffff1673ffffffffffffffffffffffffffffffffffffffff1673ffffffffffffffffffffffffffffffffffffffff1681526020016005820160009054906101000a900473ffffffffffffffffffffffffffffffffffffffff1673ffffffffffffffffffffffffffffffffffffffff1673ffffffffffffffffffffffffffffffffffffffff1681525050838381518110610800576107ff61121e565b5b60200260200101819052508180610816906111a6565b9250505b8080610825906111a6565b91505061063c565b508194505050505090565b610840610bec565b73ffffffffffffffffffffffffffffffffffffffff1661085e6108be565b73ffffffffffffffffffffffffffffffffffffffff16146108b4576040517f08c379a00000000000000000000000000000000000000000000000000000000081526004016108ab90611050565b60405180910390fd5b8060038190555050565b60008060009054906101000a900473ffffffffffffffffffffffffffffffffffffffff16905090565b60006004600083815260200190815260200160002090508060020154341461090e57600080fd5b600073ffffffffffffffffffffffffffffffffffffffff168160050160009054906101000a900473ffffffffffffffffffffffffffffffffffffffff1673ffffffffffffffffffffffffffffffffffffffff161461096b57600080fd5b8060030160009054906101000a900473ffffffffffffffffffffffffffffffffffffffff1673ffffffffffffffffffffffffffffffffffffffff166323b872dd8260040160009054906101000a900473ffffffffffffffffffffffffffffffffffffffff163384600101546040518463ffffffff1660e01b81526004016109f493929190610fd7565b600060405180830381600087803b158015610a0e57600080fd5b505af1158015610a22573d6000803e3d6000fd5b50505050338160050160006101000a81548173ffffffffffffffffffffffffffffffffffffffff021916908373ffffffffffffffffffffffffffffffffffffffff16021790555060026000815480929190610a7c906111a6565b91905055508060040160009054906101000a900473ffffffffffffffffffffffffffffffffffffffff1673ffffffffffffffffffffffffffffffffffffffff166108fc82600201549081150290604051600060405180830381858888f19350505050158015610aef573d6000803e3d6000fd5b505050565b610afc610bec565b73ffffffffffffffffffffffffffffffffffffffff16610b1a6108be565b73ffffffffffffffffffffffffffffffffffffffff1614610b70576040517f08c379a0000000000000000000000000000000000000000000000000000000008152600401610b6790611050565b60405180910390fd5b600073ffffffffffffffffffffffffffffffffffffffff168173ffffffffffffffffffffffffffffffffffffffff161415610be0576040517f08c379a0000000000000000000000000000000000000000000000000000000008152600401610bd790611030565b60405180910390fd5b610be981610bf4565b50565b600033905090565b60008060009054906101000a900473ffffffffffffffffffffffffffffffffffffffff169050816000806101000a81548173ffffffffffffffffffffffffffffffffffffffff021916908373ffffffffffffffffffffffffffffffffffffffff1602179055508173ffffffffffffffffffffffffffffffffffffffff168173ffffffffffffffffffffffffffffffffffffffff167f8be0079c531659141344cd1fd0a4f28419497f9722a3daafe3b4186f6b6457e060405160405180910390a35050565b6040518060c00160405280600081526020016000815260200160008152602001600073ffffffffffffffffffffffffffffffffffffffff168152602001600073ffffffffffffffffffffffffffffffffffffffff168152602001600073ffffffffffffffffffffffffffffffffffffffff1681525090565b600081359050610d3f816112f9565b92915050565b600081519050610d54816112f9565b92915050565b600081359050610d6981611310565b92915050565b600060208284031215610d8557610d8461127c565b5b6000610d9384828501610d30565b91505092915050565b600060208284031215610db257610db161127c565b5b6000610dc084828501610d45565b91505092915050565b600080600060608486031215610de257610de161127c565b5b6000610df086828701610d30565b9350506020610e0186828701610d5a565b9250506040610e1286828701610d5a565b9150509250925092565b600060208284031215610e3257610e3161127c565b5b6000610e4084828501610d5a565b91505092915050565b6000610e558383610f23565b60c08301905092915050565b610e6a8161116a565b82525050565b610e798161116a565b82525050565b6000610e8a826110fc565b610e948185611114565b9350610e9f836110ec565b8060005b83811015610ed0578151610eb78882610e49565b9750610ec283611107565b925050600181019050610ea3565b5085935050505092915050565b6000610eea602683611125565b9150610ef582611281565b604082019050919050565b6000610f0d602083611125565b9150610f18826112d0565b602082019050919050565b60c082016000820151610f396000850182610f9e565b506020820151610f4c6020850182610f9e565b506040820151610f5f6040850182610f9e565b506060820151610f726060850182610e61565b506080820151610f856080850182610e61565b5060a0820151610f9860a0850182610e61565b50505050565b610fa78161119c565b82525050565b610fb68161119c565b82525050565b6000602082019050610fd16000830184610e70565b92915050565b6000606082019050610fec6000830186610e70565b610ff96020830185610e70565b6110066040830184610fad565b949350505050565b600060208201905081810360008301526110288184610e7f565b905092915050565b6000602082019050818103600083015261104981610edd565b9050919050565b6000602082019050818103600083015261106981610f00565b9050919050565b60006020820190506110856000830184610fad565b92915050565b600060c0820190506110a06000830189610fad565b6110ad6020830188610fad565b6110ba6040830187610fad565b6110c76060830186610e70565b6110d46080830185610e70565b6110e160a0830184610e70565b979650505050505050565b6000819050602082019050919050565b600081519050919050565b6000602082019050919050565b600082825260208201905092915050565b600082825260208201905092915050565b60006111418261119c565b915061114c8361119c565b92508282101561115f5761115e6111ef565b5b828203905092915050565b60006111758261117c565b9050919050565b600073ffffffffffffffffffffffffffffffffffffffff82169050919050565b6000819050919050565b60006111b18261119c565b91507fffffffffffffffffffffffffffffffffffffffffffffffffffffffffffffffff8214156111e4576111e36111ef565b5b600182019050919050565b7f4e487b7100000000000000000000000000000000000000000000000000000000600052601160045260246000fd5b7f4e487b7100000000000000000000000000000000000000000000000000000000600052603260045260246000fd5b7f4e487b7100000000000000000000000000000000000000000000000000000000600052604160045260246000fd5b600080fd5b7f4f776e61626c653a206e6577206f776e657220697320746865207a65726f206160008201527f6464726573730000000000000000000000000000000000000000000000000000602082015250565b7f4f776e61626c653a2063616c6c6572206973206e6f7420746865206f776e6572600082015250565b6113028161116a565b811461130d57600080fd5b50565b6113198161119c565b811461132457600080fd5b5056fea26469706673582212200ede2883499c9a699093b13ce372358d6f9d3bbe7e9742e5d91847c0d2ef53ca64736f6c63430008070033",
  "immutableReferences": {},
  "source": "pragma solidity ^0.8.7;\r\n\r\nimport \"@openzeppelin/contracts/access/Ownable.sol\";\r\nimport \"@openzeppelin/contracts/token/ERC721/IERC721.sol\";\r\n\r\ncontract JNFTMarket is Ownable {\r\n    event MarketItemCreated(\r\n        uint256 itemId,\r\n        uint256 tokenId,\r\n        uint256 price,\r\n        address nftContract,\r\n        address seller,\r\n        address owner\r\n    );\r\n    constructor(){}\r\n    uint256 private _itemIds; // item counting\r\n    uint256 private _itemSoldCount; //  item \r\n    uint256 listingPrice = 0.001 ether;\r\n\r\n    struct MarketItem{\r\n        uint256 itemId;         // JNFTMarket  id\r\n        uint256 tokenId;        // NFT Contract  id\r\n        uint256 price;          //  .\r\n        address nftContract;    // NFT Contract address\r\n        address seller;         //   account address\r\n        address owner;          //   ,  NFT .\r\n    }\r\n\r\n    // key: itemId, value: MarketItem mapping\r\n    mapping(uint256 => MarketItem) private idToMarketItem;\r\n\r\n    /**\r\n     [1.]\r\n     setListingPrice . \r\n     -    , \r\n        listingPrice    .\r\n     */\r\n    function setListingPrice(uint256 _listingPrice) public onlyOwner {\r\n        listingPrice = _listingPrice;\r\n    }\r\n\r\n\r\n    function withdraw(uint256 _amount) public onlyOwner {\r\n        // address owner = owner();\r\n        // owner.transfer(_amount);\r\n        address payable owner = payable(owner());\r\n        owner.transfer(_amount);\r\n    }\r\n    \r\n    /**\r\n     [2.]\r\n     createMarketItem(address _nftContract, uint256 _tokenId, uint256 _price)\r\n     -   .\r\n     - ethereum listingPrice  .\r\n     - _price 0 . ()\r\n     - _itemIds 1  idToMarketItem id  .\r\n\r\n     -  \r\n     */\r\n    function createMarketItem(address _nftContract, uint256 _tokenId, uint256 _price) public payable {\r\n        // 1. ethereum  listingPrice \r\n        require(msg.value == listingPrice);\r\n        require(_price > 0);\r\n\r\n        //  NFT   JNFT Contract   \r\n        // ( Tx  account  NFT token  JNFT Market  )\r\n        // ==>     _tokenId    . \r\n        address nftOwner = IERC721(_nftContract).ownerOf(_tokenId); // \r\n        require(nftOwner == msg.sender);\r\n\r\n        idToMarketItem[_itemIds] = MarketItem(_itemIds, _tokenId, _price, _nftContract, msg.sender, address(0));\r\n        _itemIds++;\r\n        //   client  marketItem Listing .\r\n        emit MarketItemCreated(_itemIds-1, _tokenId, _price, _nftContract, msg.sender, address(0));\r\n    }\r\n\r\n    /**\r\n    [3 -  contract ]\r\n    createMarketSale(uint256 _itemId)  .: \r\n    -   .\r\n    - ethereum  MarketItem price  .\r\n    -     .\r\n\r\n    -  JNFT contract  . (JNFT transferFrom )\r\n    - itemsSoldCount   .\r\n    - ethereum seller .\r\n\r\n    -   \r\n     */\r\n    function createMarketSale(uint256 _itemId) public payable{\r\n        MarketItem storage item = idToMarketItem[_itemId];\r\n        require(msg.value == item.price); //   \r\n        require(item.owner == address(0)); //   \r\n\r\n        //-  JNFT contract  . (JNFT transferFrom )\r\n        IERC721(item.nftContract).transferFrom(item.seller, msg.sender, item.tokenId);\r\n        item.owner = msg.sender;\r\n        _itemSoldCount++;\r\n        // seller  \r\n        payable(item.seller).transfer(item.price);\r\n    }\r\n\r\n  \r\n\r\n     /**\r\n     [4 -    marketItem]\r\n     fetchUnsoldMarketItems() .\r\n     -   .\r\n     -       OO   .\r\n     - return  MarketItem  .\r\n     -    item return  .\r\n     */\r\n    function fetchUnsoldMarketItems() external view returns(MarketItem[] memory){\r\n        uint256 itemCount = _itemIds; //  listing marketItemCount\r\n        uint256 unSoldItemCount = itemCount - _itemSoldCount;\r\n\r\n        //    marketItem return\r\n        MarketItem[] memory unSoldMarketItems = new MarketItem[](unSoldItemCount);\r\n\r\n        //     MarketItem  \r\n        uint256 count = 0;\r\n        for (uint256 i=0; i<itemCount; i++){\r\n            if(idToMarketItem[i].owner == address(0)){\r\n                unSoldMarketItems[count] = idToMarketItem[i];\r\n                count++;\r\n            }\r\n        }\r\n        return unSoldMarketItems;\r\n    }\r\n\r\n\r\n\r\n\r\n\r\n\r\n\r\n\r\n\r\n\r\n\r\n\r\n\r\n\r\n\r\n\r\n\r\n\r\n\r\n\r\n\r\n\r\n\r\n\r\n\r\n\r\n     /**\r\n     [5 - fetchmarketItem]\r\n     fetchMarketItem(uint256 _itemId) .\r\n     -   .\r\n     -       OO   .\r\n     - return  MarketItem .\r\n     - _itemId  marketItem return  .\r\n      */\r\n}",
  "sourcePath": "C:\\Users\\user\\jeonnam_blockchain\\nft-market-react\\contracts\\JNFTMarket.sol",
  "compiler": {
    "name": "solc",
    "version": "0.8.7+commit.e28d00a7.Emscripten.clang"
  },
  "schemaVersion": "3.4.2",
  "updatedAt": "2021-08-19T11:31:59.605Z",
  "networkType": "ethereum",
  "devdoc": {
    "kind": "dev",
    "methods": {
      "owner()": {
        "details": "Returns the address of the current owner."
      },
      "renounceOwnership()": {
        "details": "Leaves the contract without owner. It will not be possible to call `onlyOwner` functions anymore. Can only be called by the current owner. NOTE: Renouncing ownership will leave the contract without an owner, thereby removing any functionality that is only available to the owner."
      },
      "transferOwnership(address)": {
        "details": "Transfers ownership of the contract to a new account (`newOwner`). Can only be called by the current owner."
      }
    },
    "version": 1
  },
  "userdoc": {
    "kind": "user",
    "methods": {
      "createMarketItem(address,uint256,uint256)": {
        "notice": "[2.] createMarketItem(address _nftContract, uint256 _tokenId, uint256 _price) -   . - ethereum listingPrice  . - _price 0 . () - _itemIds 1  idToMarketItem id  . -  "
      },
      "createMarketSale(uint256)": {
        "notice": "[3 -  contract ] createMarketSale(uint256 _itemId)  .:  -   . - ethereum  MarketItem price  . -     . -  JNFT contract  . (JNFT transferFrom ) - itemsSoldCount   . - ethereum seller . -   "
      },
      "fetchUnsoldMarketItems()": {
        "notice": "[4 -    marketItem] fetchUnsoldMarketItems() . -   . -       OO   . - return  MarketItem  . -    item return  ."
      },
      "setListingPrice(uint256)": {
        "notice": "[1.] setListingPrice .  -    ,   listingPrice    ."
      }
    },
    "version": 1
  }
}