{
  "contractName": "JNFT",
  "abi": [
    {
      "inputs": [
        {
          "internalType": "address",
          "name": "_marketStoreAddress",
          "type": "address"
        }
      ],
      "stateMutability": "nonpayable",
      "type": "constructor"
    },
    {
      "anonymous": false,
      "inputs": [
        {
          "indexed": true,
          "internalType": "address",
          "name": "owner",
          "type": "address"
        },
        {
          "indexed": true,
          "internalType": "address",
          "name": "approved",
          "type": "address"
        },
        {
          "indexed": true,
          "internalType": "uint256",
          "name": "tokenId",
          "type": "uint256"
        }
      ],
      "name": "Approval",
      "type": "event"
    },
    {
      "anonymous": false,
      "inputs": [
        {
          "indexed": true,
          "internalType": "address",
          "name": "owner",
          "type": "address"
        },
        {
          "indexed": true,
          "internalType": "address",
          "name": "operator",
          "type": "address"
        },
        {
          "indexed": false,
          "internalType": "bool",
          "name": "approved",
          "type": "bool"
        }
      ],
      "name": "ApprovalForAll",
      "type": "event"
    },
    {
      "anonymous": false,
      "inputs": [
        {
          "indexed": true,
          "internalType": "address",
          "name": "from",
          "type": "address"
        },
        {
          "indexed": true,
          "internalType": "address",
          "name": "to",
          "type": "address"
        },
        {
          "indexed": true,
          "internalType": "uint256",
          "name": "tokenId",
          "type": "uint256"
        }
      ],
      "name": "Transfer",
      "type": "event"
    },
    {
      "inputs": [
        {
          "internalType": "address",
          "name": "to",
          "type": "address"
        },
        {
          "internalType": "uint256",
          "name": "tokenId",
          "type": "uint256"
        }
      ],
      "name": "approve",
      "outputs": [],
      "stateMutability": "nonpayable",
      "type": "function"
    },
    {
      "inputs": [
        {
          "internalType": "address",
          "name": "owner",
          "type": "address"
        }
      ],
      "name": "balanceOf",
      "outputs": [
        {
          "internalType": "uint256",
          "name": "",
          "type": "uint256"
        }
      ],
      "stateMutability": "view",
      "type": "function",
      "constant": true
    },
    {
      "inputs": [
        {
          "internalType": "uint256",
          "name": "tokenId",
          "type": "uint256"
        }
      ],
      "name": "getApproved",
      "outputs": [
        {
          "internalType": "address",
          "name": "",
          "type": "address"
        }
      ],
      "stateMutability": "view",
      "type": "function",
      "constant": true
    },
    {
      "inputs": [
        {
          "internalType": "address",
          "name": "owner",
          "type": "address"
        },
        {
          "internalType": "address",
          "name": "operator",
          "type": "address"
        }
      ],
      "name": "isApprovedForAll",
      "outputs": [
        {
          "internalType": "bool",
          "name": "",
          "type": "bool"
        }
      ],
      "stateMutability": "view",
      "type": "function",
      "constant": true
    },
    {
      "inputs": [],
      "name": "name",
      "outputs": [
        {
          "internalType": "string",
          "name": "",
          "type": "string"
        }
      ],
      "stateMutability": "view",
      "type": "function",
      "constant": true
    },
    {
      "inputs": [
        {
          "internalType": "uint256",
          "name": "tokenId",
          "type": "uint256"
        }
      ],
      "name": "ownerOf",
      "outputs": [
        {
          "internalType": "address",
          "name": "",
          "type": "address"
        }
      ],
      "stateMutability": "view",
      "type": "function",
      "constant": true
    },
    {
      "inputs": [
        {
          "internalType": "address",
          "name": "from",
          "type": "address"
        },
        {
          "internalType": "address",
          "name": "to",
          "type": "address"
        },
        {
          "internalType": "uint256",
          "name": "tokenId",
          "type": "uint256"
        }
      ],
      "name": "safeTransferFrom",
      "outputs": [],
      "stateMutability": "nonpayable",
      "type": "function"
    },
    {
      "inputs": [
        {
          "internalType": "address",
          "name": "from",
          "type": "address"
        },
        {
          "internalType": "address",
          "name": "to",
          "type": "address"
        },
        {
          "internalType": "uint256",
          "name": "tokenId",
          "type": "uint256"
        },
        {
          "internalType": "bytes",
          "name": "_data",
          "type": "bytes"
        }
      ],
      "name": "safeTransferFrom",
      "outputs": [],
      "stateMutability": "nonpayable",
      "type": "function"
    },
    {
      "inputs": [
        {
          "internalType": "address",
          "name": "operator",
          "type": "address"
        },
        {
          "internalType": "bool",
          "name": "approved",
          "type": "bool"
        }
      ],
      "name": "setApprovalForAll",
      "outputs": [],
      "stateMutability": "nonpayable",
      "type": "function"
    },
    {
      "inputs": [
        {
          "internalType": "bytes4",
          "name": "interfaceId",
          "type": "bytes4"
        }
      ],
      "name": "supportsInterface",
      "outputs": [
        {
          "internalType": "bool",
          "name": "",
          "type": "bool"
        }
      ],
      "stateMutability": "view",
      "type": "function",
      "constant": true
    },
    {
      "inputs": [],
      "name": "symbol",
      "outputs": [
        {
          "internalType": "string",
          "name": "",
          "type": "string"
        }
      ],
      "stateMutability": "view",
      "type": "function",
      "constant": true
    },
    {
      "inputs": [
        {
          "internalType": "uint256",
          "name": "tokenId",
          "type": "uint256"
        }
      ],
      "name": "tokenURI",
      "outputs": [
        {
          "internalType": "string",
          "name": "",
          "type": "string"
        }
      ],
      "stateMutability": "view",
      "type": "function",
      "constant": true
    },
    {
      "inputs": [
        {
          "internalType": "address",
          "name": "from",
          "type": "address"
        },
        {
          "internalType": "address",
          "name": "to",
          "type": "address"
        },
        {
          "internalType": "uint256",
          "name": "tokenId",
          "type": "uint256"
        }
      ],
      "name": "transferFrom",
      "outputs": [],
      "stateMutability": "nonpayable",
      "type": "function"
    },
    {
      "inputs": [
        {
          "internalType": "string",
          "name": "_tokenURI",
          "type": "string"
        }
      ],
      "name": "createToken",
      "outputs": [
        {
          "internalType": "uint256",
          "name": "",
          "type": "uint256"
        }
      ],
      "stateMutability": "nonpayable",
      "type": "function"
    },
    {
      "inputs": [
        {
          "internalType": "address",
          "name": "_owner",
          "type": "address"
        }
      ],
      "name": "fetchTokensByAddress",
      "outputs": [
        {
          "internalType": "uint256[]",
          "name": "",
          "type": "uint256[]"
        }
      ],
      "stateMutability": "view",
      "type": "function",
      "constant": true
    }
  ],
  "bytecode": "0x60806040523480156200001157600080fd5b506040516200309e3803806200309e8339818101604052810190620000379190620001e6565b6040518060400160405280600b81526020017f4a656f6e4e616d204e46540000000000000000000000000000000000000000008152506040518060400160405280600481526020017f4a4e4654000000000000000000000000000000000000000000000000000000008152508160009080519060200190620000bb9291906200011f565b508060019080519060200190620000d49291906200011f565b50505080600760006101000a81548173ffffffffffffffffffffffffffffffffffffffff021916908373ffffffffffffffffffffffffffffffffffffffff16021790555050620002d0565b8280546200012d906200024c565b90600052602060002090601f0160209004810192826200015157600085556200019d565b82601f106200016c57805160ff19168380011785556200019d565b828001600101855582156200019d579182015b828111156200019c5782518255916020019190600101906200017f565b5b509050620001ac9190620001b0565b5090565b5b80821115620001cb576000816000905550600101620001b1565b5090565b600081519050620001e081620002b6565b92915050565b600060208284031215620001ff57620001fe620002b1565b5b60006200020f84828501620001cf565b91505092915050565b600062000225826200022c565b9050919050565b600073ffffffffffffffffffffffffffffffffffffffff82169050919050565b600060028204905060018216806200026557607f821691505b602082108114156200027c576200027b62000282565b5b50919050565b7f4e487b7100000000000000000000000000000000000000000000000000000000600052602260045260246000fd5b600080fd5b620002c18162000218565b8114620002cd57600080fd5b50565b612dbe80620002e06000396000f3fe608060405234801561001057600080fd5b50600436106100f55760003560e01c80636352211e11610097578063a22cb46511610066578063a22cb465146102aa578063b88d4fde146102c6578063c87b56dd146102e2578063e985e9c514610312576100f5565b80636352211e146101fc57806370a082311461022c578063729fd5eb1461025c57806395d89b411461028c576100f5565b8063095ea7b3116100d3578063095ea7b31461017857806323b872dd1461019457806342842e0e146101b057806345576f94146101cc576100f5565b806301ffc9a7146100fa57806306fdde031461012a578063081812fc14610148575b600080fd5b610114600480360381019061010f9190611cf3565b610342565b60405161012191906121f5565b60405180910390f35b610132610424565b60405161013f9190612210565b60405180910390f35b610162600480360381019061015d9190611d96565b6104b6565b60405161016f919061216c565b60405180910390f35b610192600480360381019061018d9190611cb3565b61053b565b005b6101ae60048036038101906101a99190611b9d565b610653565b005b6101ca60048036038101906101c59190611b9d565b6106b3565b005b6101e660048036038101906101e19190611d4d565b6106d3565b6040516101f39190612432565b60405180910390f35b61021660048036038101906102119190611d96565b610748565b604051610223919061216c565b60405180910390f35b61024660048036038101906102419190611b30565b6107fa565b6040516102539190612432565b60405180910390f35b61027660048036038101906102719190611b30565b6108b2565b60405161028391906121d3565b60405180910390f35b6102946109ac565b6040516102a19190612210565b60405180910390f35b6102c460048036038101906102bf9190611c73565b610a3e565b005b6102e060048036038101906102db9190611bf0565b610bbf565b005b6102fc60048036038101906102f79190611d96565b610c21565b6040516103099190612210565b60405180910390f35b61032c60048036038101906103279190611b5d565b610d73565b60405161033991906121f5565b60405180910390f35b60007f80ac58cd000000000000000000000000000000000000000000000000000000007bffffffffffffffffffffffffffffffffffffffffffffffffffffffff1916827bffffffffffffffffffffffffffffffffffffffffffffffffffffffff1916148061040d57507f5b5e139f000000000000000000000000000000000000000000000000000000007bffffffffffffffffffffffffffffffffffffffffffffffffffffffff1916827bffffffffffffffffffffffffffffffffffffffffffffffffffffffff1916145b8061041d575061041c82610e07565b5b9050919050565b606060008054610433906126c1565b80601f016020809104026020016040519081016040528092919081815260200182805461045f906126c1565b80156104ac5780601f10610481576101008083540402835291602001916104ac565b820191906000526020600020905b81548152906001019060200180831161048f57829003601f168201915b5050505050905090565b60006104c182610e71565b610500576040517f08c379a00000000000000000000000000000000000000000000000000000000081526004016104f790612392565b60405180910390fd5b6004600083815260200190815260200160002060009054906101000a900473ffffffffffffffffffffffffffffffffffffffff169050919050565b600061054682610748565b90508073ffffffffffffffffffffffffffffffffffffffff168373ffffffffffffffffffffffffffffffffffffffff1614156105b7576040517f08c379a00000000000000000000000000000000000000000000000000000000081526004016105ae906123f2565b60405180910390fd5b8073ffffffffffffffffffffffffffffffffffffffff166105d6610edd565b73ffffffffffffffffffffffffffffffffffffffff1614806106055750610604816105ff610edd565b610d73565b5b610644576040517f08c379a000000000000000000000000000000000000000000000000000000000815260040161063b906122d2565b60405180910390fd5b61064e8383610ee5565b505050565b61066461065e610edd565b82610f9e565b6106a3576040517f08c379a000000000000000000000000000000000000000000000000000000000815260040161069a90612412565b60405180910390fd5b6106ae83838361107c565b505050565b6106ce83838360405180602001604052806000815250610bbf565b505050565b60006106e1336008546112d8565b6106ed600854836114a6565b61071a600760009054906101000a900473ffffffffffffffffffffffffffffffffffffffff166001610a3e565b6008600081548092919061072d90612724565b9190505550600160085461074191906125d7565b9050919050565b6000806002600084815260200190815260200160002060009054906101000a900473ffffffffffffffffffffffffffffffffffffffff169050600073ffffffffffffffffffffffffffffffffffffffff168173ffffffffffffffffffffffffffffffffffffffff1614156107f1576040517f08c379a00000000000000000000000000000000000000000000000000000000081526004016107e890612312565b60405180910390fd5b80915050919050565b60008073ffffffffffffffffffffffffffffffffffffffff168273ffffffffffffffffffffffffffffffffffffffff16141561086b576040517f08c379a0000000000000000000000000000000000000000000000000000000008152600401610862906122f2565b60405180910390fd5b600360008373ffffffffffffffffffffffffffffffffffffffff1673ffffffffffffffffffffffffffffffffffffffff168152602001908152602001600020549050919050565b606060006108bf836107fa565b905060008167ffffffffffffffff8111156108dd576108dc61285a565b5b60405190808252806020026020018201604052801561090b5781602001602082028036833780820191505090505b5090506000805b6008548110156109a057600061092782610748565b90508673ffffffffffffffffffffffffffffffffffffffff168173ffffffffffffffffffffffffffffffffffffffff16141561098c57818484815181106109715761097061282b565b5b602002602001018181525050828061098890612724565b9350505b50808061099890612724565b915050610912565b50819350505050919050565b6060600180546109bb906126c1565b80601f01602080910402602001604051908101604052809291908181526020018280546109e7906126c1565b8015610a345780601f10610a0957610100808354040283529160200191610a34565b820191906000526020600020905b815481529060010190602001808311610a1757829003601f168201915b5050505050905090565b610a46610edd565b73ffffffffffffffffffffffffffffffffffffffff168273ffffffffffffffffffffffffffffffffffffffff161415610ab4576040517f08c379a0000000000000000000000000000000000000000000000000000000008152600401610aab90612292565b60405180910390fd5b8060056000610ac1610edd565b73ffffffffffffffffffffffffffffffffffffffff1673ffffffffffffffffffffffffffffffffffffffff16815260200190815260200160002060008473ffffffffffffffffffffffffffffffffffffffff1673ffffffffffffffffffffffffffffffffffffffff16815260200190815260200160002060006101000a81548160ff0219169083151502179055508173ffffffffffffffffffffffffffffffffffffffff16610b6e610edd565b73ffffffffffffffffffffffffffffffffffffffff167f17307eab39ab6107e8899845ad3d59bd9653f200f220920489ca2b5937696c3183604051610bb391906121f5565b60405180910390a35050565b610bd0610bca610edd565b83610f9e565b610c0f576040517f08c379a0000000000000000000000000000000000000000000000000000000008152600401610c0690612412565b60405180910390fd5b610c1b8484848461151a565b50505050565b6060610c2c82610e71565b610c6b576040517f08c379a0000000000000000000000000000000000000000000000000000000008152600401610c6290612372565b60405180910390fd5b6000600660008481526020019081526020016000208054610c8b906126c1565b80601f0160208091040260200160405190810160405280929190818152602001828054610cb7906126c1565b8015610d045780601f10610cd957610100808354040283529160200191610d04565b820191906000526020600020905b815481529060010190602001808311610ce757829003601f168201915b505050505090506000610d15611576565b9050600081511415610d2b578192505050610d6e565b600082511115610d60578082604051602001610d48929190612148565b60405160208183030381529060405292505050610d6e565b610d698461158d565b925050505b919050565b6000600560008473ffffffffffffffffffffffffffffffffffffffff1673ffffffffffffffffffffffffffffffffffffffff16815260200190815260200160002060008373ffffffffffffffffffffffffffffffffffffffff1673ffffffffffffffffffffffffffffffffffffffff16815260200190815260200160002060009054906101000a900460ff16905092915050565b60007f01ffc9a7000000000000000000000000000000000000000000000000000000007bffffffffffffffffffffffffffffffffffffffffffffffffffffffff1916827bffffffffffffffffffffffffffffffffffffffffffffffffffffffff1916149050919050565b60008073ffffffffffffffffffffffffffffffffffffffff166002600084815260200190815260200160002060009054906101000a900473ffffffffffffffffffffffffffffffffffffffff1673ffffffffffffffffffffffffffffffffffffffff1614159050919050565b600033905090565b816004600083815260200190815260200160002060006101000a81548173ffffffffffffffffffffffffffffffffffffffff021916908373ffffffffffffffffffffffffffffffffffffffff160217905550808273ffffffffffffffffffffffffffffffffffffffff16610f5883610748565b73ffffffffffffffffffffffffffffffffffffffff167f8c5be1e5ebec7d5bd14f71427d1e84f3dd0314c0f7b2291e5b200ac8c7c3b92560405160405180910390a45050565b6000610fa982610e71565b610fe8576040517f08c379a0000000000000000000000000000000000000000000000000000000008152600401610fdf906122b2565b60405180910390fd5b6000610ff383610748565b90508073ffffffffffffffffffffffffffffffffffffffff168473ffffffffffffffffffffffffffffffffffffffff16148061106257508373ffffffffffffffffffffffffffffffffffffffff1661104a846104b6565b73ffffffffffffffffffffffffffffffffffffffff16145b8061107357506110728185610d73565b5b91505092915050565b8273ffffffffffffffffffffffffffffffffffffffff1661109c82610748565b73ffffffffffffffffffffffffffffffffffffffff16146110f2576040517f08c379a00000000000000000000000000000000000000000000000000000000081526004016110e9906123b2565b60405180910390fd5b600073ffffffffffffffffffffffffffffffffffffffff168273ffffffffffffffffffffffffffffffffffffffff161415611162576040517f08c379a000000000000000000000000000000000000000000000000000000000815260040161115990612272565b60405180910390fd5b61116d838383611634565b611178600082610ee5565b6001600360008573ffffffffffffffffffffffffffffffffffffffff1673ffffffffffffffffffffffffffffffffffffffff16815260200190815260200160002060008282546111c891906125d7565b925050819055506001600360008473ffffffffffffffffffffffffffffffffffffffff1673ffffffffffffffffffffffffffffffffffffffff168152602001908152602001600020600082825461121f9190612550565b92505081905550816002600083815260200190815260200160002060006101000a81548173ffffffffffffffffffffffffffffffffffffffff021916908373ffffffffffffffffffffffffffffffffffffffff160217905550808273ffffffffffffffffffffffffffffffffffffffff168473ffffffffffffffffffffffffffffffffffffffff167fddf252ad1be2c89b69c2b068fc378daa952ba7f163c4a11628f55a4df523b3ef60405160405180910390a4505050565b600073ffffffffffffffffffffffffffffffffffffffff168273ffffffffffffffffffffffffffffffffffffffff161415611348576040517f08c379a000000000000000000000000000000000000000000000000000000000815260040161133f90612352565b60405180910390fd5b61135181610e71565b15611391576040517f08c379a000000000000000000000000000000000000000000000000000000000815260040161138890612252565b60405180910390fd5b61139d60008383611634565b6001600360008473ffffffffffffffffffffffffffffffffffffffff1673ffffffffffffffffffffffffffffffffffffffff16815260200190815260200160002060008282546113ed9190612550565b92505081905550816002600083815260200190815260200160002060006101000a81548173ffffffffffffffffffffffffffffffffffffffff021916908373ffffffffffffffffffffffffffffffffffffffff160217905550808273ffffffffffffffffffffffffffffffffffffffff16600073ffffffffffffffffffffffffffffffffffffffff167fddf252ad1be2c89b69c2b068fc378daa952ba7f163c4a11628f55a4df523b3ef60405160405180910390a45050565b6114af82610e71565b6114ee576040517f08c379a00000000000000000000000000000000000000000000000000000000081526004016114e590612332565b60405180910390fd5b80600660008481526020019081526020016000209080519060200190611515929190611944565b505050565b61152584848461107c565b61153184848484611639565b611570576040517f08c379a000000000000000000000000000000000000000000000000000000000815260040161156790612232565b60405180910390fd5b50505050565b606060405180602001604052806000815250905090565b606061159882610e71565b6115d7576040517f08c379a00000000000000000000000000000000000000000000000000000000081526004016115ce906123d2565b60405180910390fd5b60006115e1611576565b90506000815111611601576040518060200160405280600081525061162c565b8061160b846117d0565b60405160200161161c929190612148565b6040516020818303038152906040525b915050919050565b505050565b600061165a8473ffffffffffffffffffffffffffffffffffffffff16611931565b156117c3578373ffffffffffffffffffffffffffffffffffffffff1663150b7a02611683610edd565b8786866040518563ffffffff1660e01b81526004016116a59493929190612187565b602060405180830381600087803b1580156116bf57600080fd5b505af19250505080156116f057506040513d601f19601f820116820180604052508101906116ed9190611d20565b60015b611773573d8060008114611720576040519150601f19603f3d011682016040523d82523d6000602084013e611725565b606091505b5060008151141561176b576040517f08c379a000000000000000000000000000000000000000000000000000000000815260040161176290612232565b60405180910390fd5b805181602001fd5b63150b7a0260e01b7bffffffffffffffffffffffffffffffffffffffffffffffffffffffff1916817bffffffffffffffffffffffffffffffffffffffffffffffffffffffff1916149150506117c8565b600190505b949350505050565b60606000821415611818576040518060400160405280600181526020017f3000000000000000000000000000000000000000000000000000000000000000815250905061192c565b600082905060005b6000821461184a57808061183390612724565b915050600a8261184391906125a6565b9150611820565b60008167ffffffffffffffff8111156118665761186561285a565b5b6040519080825280601f01601f1916602001820160405280156118985781602001600182028036833780820191505090505b5090505b60008514611925576001826118b191906125d7565b9150600a856118c0919061276d565b60306118cc9190612550565b60f81b8183815181106118e2576118e161282b565b5b60200101907effffffffffffffffffffffffffffffffffffffffffffffffffffffffffffff1916908160001a905350600a8561191e91906125a6565b945061189c565b8093505050505b919050565b600080823b905060008111915050919050565b828054611950906126c1565b90600052602060002090601f01602090048101928261197257600085556119b9565b82601f1061198b57805160ff19168380011785556119b9565b828001600101855582156119b9579182015b828111156119b857825182559160200191906001019061199d565b5b5090506119c691906119ca565b5090565b5b808211156119e35760008160009055506001016119cb565b5090565b60006119fa6119f584612472565b61244d565b905082815260208101848484011115611a1657611a1561288e565b5b611a2184828561267f565b509392505050565b6000611a3c611a37846124a3565b61244d565b905082815260208101848484011115611a5857611a5761288e565b5b611a6384828561267f565b509392505050565b600081359050611a7a81612d2c565b92915050565b600081359050611a8f81612d43565b92915050565b600081359050611aa481612d5a565b92915050565b600081519050611ab981612d5a565b92915050565b600082601f830112611ad457611ad3612889565b5b8135611ae48482602086016119e7565b91505092915050565b600082601f830112611b0257611b01612889565b5b8135611b12848260208601611a29565b91505092915050565b600081359050611b2a81612d71565b92915050565b600060208284031215611b4657611b45612898565b5b6000611b5484828501611a6b565b91505092915050565b60008060408385031215611b7457611b73612898565b5b6000611b8285828601611a6b565b9250506020611b9385828601611a6b565b9150509250929050565b600080600060608486031215611bb657611bb5612898565b5b6000611bc486828701611a6b565b9350506020611bd586828701611a6b565b9250506040611be686828701611b1b565b9150509250925092565b60008060008060808587031215611c0a57611c09612898565b5b6000611c1887828801611a6b565b9450506020611c2987828801611a6b565b9350506040611c3a87828801611b1b565b925050606085013567ffffffffffffffff811115611c5b57611c5a612893565b5b611c6787828801611abf565b91505092959194509250565b60008060408385031215611c8a57611c89612898565b5b6000611c9885828601611a6b565b9250506020611ca985828601611a80565b9150509250929050565b60008060408385031215611cca57611cc9612898565b5b6000611cd885828601611a6b565b9250506020611ce985828601611b1b565b9150509250929050565b600060208284031215611d0957611d08612898565b5b6000611d1784828501611a95565b91505092915050565b600060208284031215611d3657611d35612898565b5b6000611d4484828501611aaa565b91505092915050565b600060208284031215611d6357611d62612898565b5b600082013567ffffffffffffffff811115611d8157611d80612893565b5b611d8d84828501611aed565b91505092915050565b600060208284031215611dac57611dab612898565b5b6000611dba84828501611b1b565b91505092915050565b6000611dcf838361212a565b60208301905092915050565b611de48161260b565b82525050565b6000611df5826124e4565b611dff8185612512565b9350611e0a836124d4565b8060005b83811015611e3b578151611e228882611dc3565b9750611e2d83612505565b925050600181019050611e0e565b5085935050505092915050565b611e518161261d565b82525050565b6000611e62826124ef565b611e6c8185612523565b9350611e7c81856020860161268e565b611e858161289d565b840191505092915050565b6000611e9b826124fa565b611ea58185612534565b9350611eb581856020860161268e565b611ebe8161289d565b840191505092915050565b6000611ed4826124fa565b611ede8185612545565b9350611eee81856020860161268e565b80840191505092915050565b6000611f07603283612534565b9150611f12826128ae565b604082019050919050565b6000611f2a601c83612534565b9150611f35826128fd565b602082019050919050565b6000611f4d602483612534565b9150611f5882612926565b604082019050919050565b6000611f70601983612534565b9150611f7b82612975565b602082019050919050565b6000611f93602c83612534565b9150611f9e8261299e565b604082019050919050565b6000611fb6603883612534565b9150611fc1826129ed565b604082019050919050565b6000611fd9602a83612534565b9150611fe482612a3c565b604082019050919050565b6000611ffc602983612534565b915061200782612a8b565b604082019050919050565b600061201f602e83612534565b915061202a82612ada565b604082019050919050565b6000612042602083612534565b915061204d82612b29565b602082019050919050565b6000612065603183612534565b915061207082612b52565b604082019050919050565b6000612088602c83612534565b915061209382612ba1565b604082019050919050565b60006120ab602983612534565b91506120b682612bf0565b604082019050919050565b60006120ce602f83612534565b91506120d982612c3f565b604082019050919050565b60006120f1602183612534565b91506120fc82612c8e565b604082019050919050565b6000612114603183612534565b915061211f82612cdd565b604082019050919050565b61213381612675565b82525050565b61214281612675565b82525050565b60006121548285611ec9565b91506121608284611ec9565b91508190509392505050565b60006020820190506121816000830184611ddb565b92915050565b600060808201905061219c6000830187611ddb565b6121a96020830186611ddb565b6121b66040830185612139565b81810360608301526121c88184611e57565b905095945050505050565b600060208201905081810360008301526121ed8184611dea565b905092915050565b600060208201905061220a6000830184611e48565b92915050565b6000602082019050818103600083015261222a8184611e90565b905092915050565b6000602082019050818103600083015261224b81611efa565b9050919050565b6000602082019050818103600083015261226b81611f1d565b9050919050565b6000602082019050818103600083015261228b81611f40565b9050919050565b600060208201905081810360008301526122ab81611f63565b9050919050565b600060208201905081810360008301526122cb81611f86565b9050919050565b600060208201905081810360008301526122eb81611fa9565b9050919050565b6000602082019050818103600083015261230b81611fcc565b9050919050565b6000602082019050818103600083015261232b81611fef565b9050919050565b6000602082019050818103600083015261234b81612012565b9050919050565b6000602082019050818103600083015261236b81612035565b9050919050565b6000602082019050818103600083015261238b81612058565b9050919050565b600060208201905081810360008301526123ab8161207b565b9050919050565b600060208201905081810360008301526123cb8161209e565b9050919050565b600060208201905081810360008301526123eb816120c1565b9050919050565b6000602082019050818103600083015261240b816120e4565b9050919050565b6000602082019050818103600083015261242b81612107565b9050919050565b60006020820190506124476000830184612139565b92915050565b6000612457612468565b905061246382826126f3565b919050565b6000604051905090565b600067ffffffffffffffff82111561248d5761248c61285a565b5b6124968261289d565b9050602081019050919050565b600067ffffffffffffffff8211156124be576124bd61285a565b5b6124c78261289d565b9050602081019050919050565b6000819050602082019050919050565b600081519050919050565b600081519050919050565b600081519050919050565b6000602082019050919050565b600082825260208201905092915050565b600082825260208201905092915050565b600082825260208201905092915050565b600081905092915050565b600061255b82612675565b915061256683612675565b9250827fffffffffffffffffffffffffffffffffffffffffffffffffffffffffffffffff0382111561259b5761259a61279e565b5b828201905092915050565b60006125b182612675565b91506125bc83612675565b9250826125cc576125cb6127cd565b5b828204905092915050565b60006125e282612675565b91506125ed83612675565b925082821015612600576125ff61279e565b5b828203905092915050565b600061261682612655565b9050919050565b60008115159050919050565b60007fffffffff0000000000000000000000000000000000000000000000000000000082169050919050565b600073ffffffffffffffffffffffffffffffffffffffff82169050919050565b6000819050919050565b82818337600083830152505050565b60005b838110156126ac578082015181840152602081019050612691565b838111156126bb576000848401525b50505050565b600060028204905060018216806126d957607f821691505b602082108114156126ed576126ec6127fc565b5b50919050565b6126fc8261289d565b810181811067ffffffffffffffff8211171561271b5761271a61285a565b5b80604052505050565b600061272f82612675565b91507fffffffffffffffffffffffffffffffffffffffffffffffffffffffffffffffff8214156127625761276161279e565b5b600182019050919050565b600061277882612675565b915061278383612675565b925082612793576127926127cd565b5b828206905092915050565b7f4e487b7100000000000000000000000000000000000000000000000000000000600052601160045260246000fd5b7f4e487b7100000000000000000000000000000000000000000000000000000000600052601260045260246000fd5b7f4e487b7100000000000000000000000000000000000000000000000000000000600052602260045260246000fd5b7f4e487b7100000000000000000000000000000000000000000000000000000000600052603260045260246000fd5b7f4e487b7100000000000000000000000000000000000000000000000000000000600052604160045260246000fd5b600080fd5b600080fd5b600080fd5b600080fd5b6000601f19601f8301169050919050565b7f4552433732313a207472616e7366657220746f206e6f6e20455243373231526560008201527f63656976657220696d706c656d656e7465720000000000000000000000000000602082015250565b7f4552433732313a20746f6b656e20616c7265616479206d696e74656400000000600082015250565b7f4552433732313a207472616e7366657220746f20746865207a65726f2061646460008201527f7265737300000000000000000000000000000000000000000000000000000000602082015250565b7f4552433732313a20617070726f766520746f2063616c6c657200000000000000600082015250565b7f4552433732313a206f70657261746f7220717565727920666f72206e6f6e657860008201527f697374656e7420746f6b656e0000000000000000000000000000000000000000602082015250565b7f4552433732313a20617070726f76652063616c6c6572206973206e6f74206f7760008201527f6e6572206e6f7220617070726f76656420666f7220616c6c0000000000000000602082015250565b7f4552433732313a2062616c616e636520717565727920666f7220746865207a6560008201527f726f206164647265737300000000000000000000000000000000000000000000602082015250565b7f4552433732313a206f776e657220717565727920666f72206e6f6e657869737460008201527f656e7420746f6b656e0000000000000000000000000000000000000000000000602082015250565b7f45524337323155524953746f726167653a2055524920736574206f66206e6f6e60008201527f6578697374656e7420746f6b656e000000000000000000000000000000000000602082015250565b7f4552433732313a206d696e7420746f20746865207a65726f2061646472657373600082015250565b7f45524337323155524953746f726167653a2055524920717565727920666f722060008201527f6e6f6e6578697374656e7420746f6b656e000000000000000000000000000000602082015250565b7f4552433732313a20617070726f76656420717565727920666f72206e6f6e657860008201527f697374656e7420746f6b656e0000000000000000000000000000000000000000602082015250565b7f4552433732313a207472616e73666572206f6620746f6b656e2074686174206960008201527f73206e6f74206f776e0000000000000000000000000000000000000000000000602082015250565b7f4552433732314d657461646174613a2055524920717565727920666f72206e6f60008201527f6e6578697374656e7420746f6b656e0000000000000000000000000000000000602082015250565b7f4552433732313a20617070726f76616c20746f2063757272656e74206f776e6560008201527f7200000000000000000000000000000000000000000000000000000000000000602082015250565b7f4552433732313a207472616e736665722063616c6c6572206973206e6f74206f60008201527f776e6572206e6f7220617070726f766564000000000000000000000000000000602082015250565b612d358161260b565b8114612d4057600080fd5b50565b612d4c8161261d565b8114612d5757600080fd5b50565b612d6381612629565b8114612d6e57600080fd5b50565b612d7a81612675565b8114612d8557600080fd5b5056fea2646970667358221220856234a636a7aa488280bef85d98fbf61d0f140dd9352377bf1612e2fd0da74464736f6c63430008070033",
  "immutableReferences": {},
  "source": "// SPDX-License-Identifier: MIT\r\npragma solidity ^0.8.7;\r\n\r\nimport \"@openzeppelin/contracts/token/ERC721/ERC721.sol\";\r\nimport \"@openzeppelin/contracts/token/ERC721/extensions/ERC721URIStorage.sol\";\r\n// https://eips.ethereum.org/EIPS/eip-721\r\n\r\n/**\r\n  ethereum \r\n  <address>.transfer(1eth)\r\n  payable(<address>).transfer\r\n */\r\n\r\n\r\ncontract JNFT is ERC721URIStorage {\r\n  address private _marketAddress;\r\n  uint256 private _tokenId;\r\n\r\n  // struct NFTItem{\r\n  //   address prevOwner,\r\n  //   uint16 txCount\r\n  // }\r\n\r\n  constructor(address _marketStoreAddress) ERC721(\"JeonNam NFT\", \"JNFT\"){\r\n    _marketAddress = _marketStoreAddress;\r\n  }\r\n\r\n  /**\r\n    1. token ID \r\n    2. mint\r\n    3. setTokenURI(itemId, tokenURI) \r\n    4. setApproveForAll(_marketAddress)\r\n    @return {tokenId}\r\n   */\r\n  function createToken(string memory _tokenURI) public returns (uint256){\r\n    _mint(msg.sender, _tokenId); // : <ERC721> Contract\r\n    _setTokenURI(_tokenId, _tokenURI); // : <ERC721URIStorage> Contract\r\n\r\n    setApprovalForAll(_marketAddress, true);\r\n\r\n    _tokenId++;\r\n    return (_tokenId - 1);\r\n  }\r\n\r\n  /**\r\n   * address tokenId  return\r\n   * @return {tokenId[]}\r\n   */\r\n  function fetchTokensByAddress(address _owner) external view returns (uint256[] memory){\r\n    uint256 balance = balanceOf(_owner);\r\n    uint256[] memory result = new uint256[](balance);\r\n\r\n    uint256 count = 0;\r\n    for (uint256 i=0; i<_tokenId; i++){\r\n      address tokenOwner = ownerOf(i);\r\n      if (tokenOwner == _owner){\r\n        result[count] = i;\r\n        count++;\r\n      }\r\n    }\r\n\r\n    return result;\r\n  }\r\n\r\n\r\n\r\n}\r\n",
  "sourcePath": "C:\\Users\\user\\jeonnam_blockchain\\nft-market-react\\contracts\\JNFT.sol",
  "compiler": {
    "name": "solc",
    "version": "0.8.7+commit.e28d00a7.Emscripten.clang"
  },
  "schemaVersion": "3.4.2",
  "updatedAt": "2021-08-24T09:50:41.078Z",
  "networkType": "ethereum",
  "devdoc": {
    "kind": "dev",
    "methods": {
      "approve(address,uint256)": {
        "details": "See {IERC721-approve}."
      },
      "balanceOf(address)": {
        "details": "See {IERC721-balanceOf}."
      },
      "createToken(string)": {
        "returns": {
          "_0": "{tokenId}"
        }
      },
      "fetchTokensByAddress(address)": {
        "returns": {
          "_0": "{tokenId[]}"
        }
      },
      "getApproved(uint256)": {
        "details": "See {IERC721-getApproved}."
      },
      "isApprovedForAll(address,address)": {
        "details": "See {IERC721-isApprovedForAll}."
      },
      "name()": {
        "details": "See {IERC721Metadata-name}."
      },
      "ownerOf(uint256)": {
        "details": "See {IERC721-ownerOf}."
      },
      "safeTransferFrom(address,address,uint256)": {
        "details": "See {IERC721-safeTransferFrom}."
      },
      "safeTransferFrom(address,address,uint256,bytes)": {
        "details": "See {IERC721-safeTransferFrom}."
      },
      "setApprovalForAll(address,bool)": {
        "details": "See {IERC721-setApprovalForAll}."
      },
      "supportsInterface(bytes4)": {
        "details": "See {IERC165-supportsInterface}."
      },
      "symbol()": {
        "details": "See {IERC721Metadata-symbol}."
      },
      "tokenURI(uint256)": {
        "details": "See {IERC721Metadata-tokenURI}."
      },
      "transferFrom(address,address,uint256)": {
        "details": "See {IERC721-transferFrom}."
      }
    },
    "version": 1
  },
  "userdoc": {
    "kind": "user",
    "methods": {
      "createToken(string)": {
        "notice": "1. token ID  2. mint 3. setTokenURI(itemId, tokenURI)  4. setApproveForAll(_marketAddress)"
      },
      "fetchTokensByAddress(address)": {
        "notice": "address tokenId  return"
      }
    },
    "notice": "ethereum  <address>.transfer(1eth) payable(<address>).transfer",
    "version": 1
  }
}